{
  "contractName": "ArrayShift",
  "abi": [
    {
      "inputs": [
        {
          "internalType": "uint256",
          "name": "",
          "type": "uint256"
        }
      ],
      "name": "scores",
      "outputs": [
        {
          "internalType": "uint256",
          "name": "",
          "type": "uint256"
        }
      ],
      "stateMutability": "view",
      "type": "function"
    },
    {
      "inputs": [],
      "name": "example",
      "outputs": [],
      "stateMutability": "nonpayable",
      "type": "function"
    },
    {
      "inputs": [
        {
          "internalType": "uint256",
          "name": "_score",
          "type": "uint256"
        }
      ],
      "name": "remove",
      "outputs": [],
      "stateMutability": "nonpayable",
      "type": "function"
    },
    {
      "inputs": [],
      "name": "test",
      "outputs": [],
      "stateMutability": "nonpayable",
      "type": "function"
    }
  ],
  "bytecode": "0x608060405234801561001057600080fd5b50610785806100206000396000f3fe608060405234801561001057600080fd5b506004361061004c5760003560e01c80632ee691a3146100515780634cc822151461008157806354353f2f1461009d578063f8a8fd6d146100a7575b600080fd5b61006b600480360381019061006691906104ec565b6100b1565b6040516100789190610528565b60405180910390f35b61009b600480360381019061009691906104ec565b6100d5565b005b6100a56101c7565b005b6100af610224565b005b600081815481106100c157600080fd5b906000526020600020016000915090505481565b600080549050811061011c576040517f08c379a0000000000000000000000000000000000000000000000000000000008152600401610113906105a0565b60405180910390fd5b60008190505b600160008054905061013491906105ef565b81101561019b57600060018261014a9190610623565b8154811061015b5761015a610679565b5b90600052602060002001546000828154811061017a57610179610679565b5b90600052602060002001819055508080610193906106a8565b915050610122565b5060008054806101ae576101ad6106f1565b5b6001900381819060005260206000200160009055905550565b6040518060600160405280601760ff168152602001604160ff168152602001605760ff1681525060009060036101fe92919061039e565b50600060018154811061021457610213610679565b5b9060005260206000200160009055565b6040518060c00160405280600160ff168152602001600260ff168152602001600360ff168152602001600460ff168152602001600560ff168152602001600660ff1681525060009060066102799291906103f0565b5061028460026100d5565b60016000808154811061029a57610299610679565b5b9060005260206000200154146102b3576102b2610720565b5b600260006001815481106102ca576102c9610679565b5b9060005260206000200154146102e3576102e2610720565b5b600460006002815481106102fa576102f9610679565b5b90600052602060002001541461031357610312610720565b5b6005600060038154811061032a57610329610679565b5b90600052602060002001541461034357610342610720565b5b60046000805490501461035957610358610720565b5b6040518060200160405280601760ff16815250600090600161037c929190610442565b5061038760006100d5565b600080805490501461039c5761039b610720565b5b565b8280548282559060005260206000209081019282156103df579160200282015b828111156103de578251829060ff169055916020019190600101906103be565b5b5090506103ec9190610494565b5090565b828054828255906000526020600020908101928215610431579160200282015b82811115610430578251829060ff16905591602001919060010190610410565b5b50905061043e9190610494565b5090565b828054828255906000526020600020908101928215610483579160200282015b82811115610482578251829060ff16905591602001919060010190610462565b5b5090506104909190610494565b5090565b5b808211156104ad576000816000905550600101610495565b5090565b600080fd5b6000819050919050565b6104c9816104b6565b81146104d457600080fd5b50565b6000813590506104e6816104c0565b92915050565b600060208284031215610502576105016104b1565b5b6000610510848285016104d7565b91505092915050565b610522816104b6565b82525050565b600060208201905061053d6000830184610519565b92915050565b600082825260208201905092915050565b7f4962646578206f7574206f6620626f756e647300000000000000000000000000600082015250565b600061058a601383610543565b915061059582610554565b602082019050919050565b600060208201905081810360008301526105b98161057d565b9050919050565b7f4e487b7100000000000000000000000000000000000000000000000000000000600052601160045260246000fd5b60006105fa826104b6565b9150610605836104b6565b925082821015610618576106176105c0565b5b828203905092915050565b600061062e826104b6565b9150610639836104b6565b9250827fffffffffffffffffffffffffffffffffffffffffffffffffffffffffffffffff0382111561066e5761066d6105c0565b5b828201905092915050565b7f4e487b7100000000000000000000000000000000000000000000000000000000600052603260045260246000fd5b60006106b3826104b6565b91507fffffffffffffffffffffffffffffffffffffffffffffffffffffffffffffffff8214156106e6576106e56105c0565b5b600182019050919050565b7f4e487b7100000000000000000000000000000000000000000000000000000000600052603160045260246000fd5b7f4e487b7100000000000000000000000000000000000000000000000000000000600052600160045260246000fdfea26469706673582212203f6ff11dd4010a3354ea642a2610f2d17211777e3fe8b8264e4a86111657815464736f6c634300080b0033",
  "immutableReferences": {},
  "source": "// SPDX-License-Identifier: MIT\npragma solidity ^0.8.7;\n\ncontract ArrayShift {\n    uint[] public scores;\n\n    function example() public {\n        scores = [23,65,87];\n        delete scores[1]; // [23,0,87]\n    }\n    \n    // [1,2,3,4,5,6] = remove(2) = [1,2,4,5,6,6] = [1,2,4,5,6]\n    function remove(uint _score) public {\n        require(_score < scores.length, \"Ibdex out of bounds\");\n        for(uint i = _score; i < scores.length -1; i++){\n            scores[i] = scores[i+1];\n        }\n        scores.pop();\n    }\n\n    function test() external {\n        scores = [1,2,3,4,5,6];\n        remove(2);\n        // [1,2,4,5]\n        assert(scores[0] == 1);\n        assert(scores[1] == 2);\n        assert(scores[2] == 4);\n        assert(scores[3] == 5);\n        assert(scores.length == 4);\n\n        scores = [23];\n        remove(0);\n        //[]\n        assert(scores.length == 0);\n\n    }\n}",
  "sourcePath": "/Users/bhanuprakashkandregula/Documents/programming/code-javascript-handson/002_SolidityPuzzles/01_SolidityBasics/contracts/19_ArrayShift.sol",
  "compiler": {
    "name": "solc",
    "version": "0.8.11+commit.d7f03943.Emscripten.clang"
  },
  "schemaVersion": "3.4.4",
  "updatedAt": "2022-04-01T16:30:50.303Z",
  "devdoc": {
    "kind": "dev",
    "methods": {},
    "version": 1
  },
  "userdoc": {
    "kind": "user",
    "methods": {},
    "version": 1
  }
}