{
  "contractName": "ArraysDemo",
  "abi": [
    {
      "inputs": [
        {
          "internalType": "uint256",
          "name": "",
          "type": "uint256"
        }
      ],
      "name": "nums",
      "outputs": [
        {
          "internalType": "uint256",
          "name": "",
          "type": "uint256"
        }
      ],
      "stateMutability": "view",
      "type": "function"
    },
    {
      "inputs": [
        {
          "internalType": "uint256",
          "name": "",
          "type": "uint256"
        }
      ],
      "name": "numsFixed",
      "outputs": [
        {
          "internalType": "uint256",
          "name": "",
          "type": "uint256"
        }
      ],
      "stateMutability": "view",
      "type": "function"
    },
    {
      "inputs": [],
      "name": "examples",
      "outputs": [],
      "stateMutability": "nonpayable",
      "type": "function"
    },
    {
      "inputs": [],
      "name": "myArray",
      "outputs": [
        {
          "internalType": "uint256[]",
          "name": "",
          "type": "uint256[]"
        }
      ],
      "stateMutability": "view",
      "type": "function"
    }
  ],
  "bytecode": "0x60806040526040518060600160405280600160ff168152602001600260ff168152602001600360ff16815250600090600361003b929190610086565b506040518060600160405280600460ff168152602001600560ff168152602001600660ff1681525060019060036100739291906100d8565b5034801561008057600080fd5b5061013a565b8280548282559060005260206000209081019282156100c7579160200282015b828111156100c6578251829060ff169055916020019190600101906100a6565b5b5090506100d4919061011d565b5090565b826003810192821561010c579160200282015b8281111561010b578251829060ff169055916020019190600101906100eb565b5b509050610119919061011d565b5090565b5b8082111561013657600081600090555060010161011e565b5090565b6104e1806101496000396000f3fe608060405234801561001057600080fd5b506004361061004c5760003560e01c8063335d00c214610051578063443957691461005b5780638ac41c271461008b578063fd1ee54c146100a9575b600080fd5b6100596100d9565b005b610075600480360381019061007091906102e7565b610215565b6040516100829190610323565b60405180910390f35b610093610230565b6040516100a091906103fc565b60405180910390f35b6100c360048036038101906100be91906102e7565b610288565b6040516100d09190610323565b60405180910390f35b6000600490806001815401808255809150506001900390600052602060002001600090919091909150556000806001815481106101195761011861041e565b5b90600052602060002001549050610309600060028154811061013e5761013d61041e565b5b906000526020600020018190555060006001815481106101615761016061041e565b5b906000526020600020016000905560008054806101815761018061044d565b5b600190038181906000526020600020016000905590556000808054905090506000600567ffffffffffffffff8111156101bd576101bc61047c565b5b6040519080825280602002602001820160405280156101eb5781602001602082028036833780820191505090505b509050607b816001815181106102045761020361041e565b5b602002602001018181525050505050565b6001816003811061022557600080fd5b016000915090505481565b6060600080548060200260200160405190810160405280929190818152602001828054801561027e57602002820191906000526020600020905b81548152602001906001019080831161026a575b5050505050905090565b6000818154811061029857600080fd5b906000526020600020016000915090505481565b600080fd5b6000819050919050565b6102c4816102b1565b81146102cf57600080fd5b50565b6000813590506102e1816102bb565b92915050565b6000602082840312156102fd576102fc6102ac565b5b600061030b848285016102d2565b91505092915050565b61031d816102b1565b82525050565b60006020820190506103386000830184610314565b92915050565b600081519050919050565b600082825260208201905092915050565b6000819050602082019050919050565b610373816102b1565b82525050565b6000610385838361036a565b60208301905092915050565b6000602082019050919050565b60006103a98261033e565b6103b38185610349565b93506103be8361035a565b8060005b838110156103ef5781516103d68882610379565b97506103e183610391565b9250506001810190506103c2565b5085935050505092915050565b60006020820190508181036000830152610416818461039e565b905092915050565b7f4e487b7100000000000000000000000000000000000000000000000000000000600052603260045260246000fd5b7f4e487b7100000000000000000000000000000000000000000000000000000000600052603160045260246000fd5b7f4e487b7100000000000000000000000000000000000000000000000000000000600052604160045260246000fdfea2646970667358221220e0bb61255c04db8f0b3149b15eb259b2598c0441d81404cbc325ef476228d95364736f6c634300080b0033",
  "immutableReferences": {},
  "source": "// SPDX-License-Identifier: MIT\npragma solidity ^0.8.7;\n\n// Array - dynamic to Fixed size\n// Arrays initialization\n// Insert (push), get, update, delete, pop, length\n// Creating array in memory\n// Returning array from function\n\ncontract ArraysDemo {\n    // Dynamic array\n    uint[] public nums = [1,2,3];\n\n    // Fixed size array\n    uint[3] public numsFixed = [4,5,6];\n\n    function examples() external {\n        // we can't push elements to fized size array\n        // push adds element at the end of array - dynamic array\n        nums.push(4); // [1,2,3,4]\n\n        uint x = nums[1]; // we can access array element with index value\n\n        nums[2] = 777; // [1,2,777,4] updating the index value\n\n        // even we delete an element in array, lenght of the array remains same\n        delete nums[1]; // This will delete element at index 1 [1,0,777,4]\n\n        // pop will remove last element in array\n        // length of the array will be decreased unlike delete\n        nums.pop();\n\n        // lenght of the array\n        uint len = nums.length;\n\n        // creating an array in memory\n        // no push() and pop() in the array created in memory\n        // update (or) get the value will work in memory array \n        uint[] memory a = new uint[](5);\n        a[1] = 123;\n\n    }\n\n    // This function returns an array\n    function myArray() public view returns (uint[] memory){\n        return nums;\n    }\n\n}",
  "sourcePath": "/Users/bhanuprakashkandregula/Documents/programming/code-javascript-handson/002_SolidityPuzzles/01_SolidityBasics/contracts/18_Arrays.sol",
  "compiler": {
    "name": "solc",
    "version": "0.8.11+commit.d7f03943.Emscripten.clang"
  },
  "schemaVersion": "3.4.4",
  "updatedAt": "2022-04-01T16:30:50.302Z",
  "devdoc": {
    "kind": "dev",
    "methods": {},
    "version": 1
  },
  "userdoc": {
    "kind": "user",
    "methods": {},
    "version": 1
  }
}