{
  "contractName": "ArrayReplaceLast",
  "abi": [
    {
      "inputs": [
        {
          "internalType": "uint256",
          "name": "",
          "type": "uint256"
        }
      ],
      "name": "scores",
      "outputs": [
        {
          "internalType": "uint256",
          "name": "",
          "type": "uint256"
        }
      ],
      "stateMutability": "view",
      "type": "function"
    },
    {
      "inputs": [
        {
          "internalType": "uint256",
          "name": "_index",
          "type": "uint256"
        }
      ],
      "name": "remove",
      "outputs": [],
      "stateMutability": "nonpayable",
      "type": "function"
    },
    {
      "inputs": [],
      "name": "test",
      "outputs": [],
      "stateMutability": "nonpayable",
      "type": "function"
    }
  ],
  "bytecode": "0x608060405234801561001057600080fd5b506104d6806100206000396000f3fe608060405234801561001057600080fd5b50600436106100415760003560e01c80632ee691a3146100465780634cc8221514610076578063f8a8fd6d14610092575b600080fd5b610060600480360381019061005b9190610359565b61009c565b60405161006d9190610395565b60405180910390f35b610090600480360381019061008b9190610359565b6100c0565b005b61009a61013d565b005b600081815481106100ac57600080fd5b906000526020600020016000915090505481565b600060016000805490506100d491906103df565b815481106100e5576100e4610413565b5b90600052602060002001546000828154811061010457610103610413565b5b9060005260206000200181905550600080548061012457610123610442565b5b6001900381819060005260206000200160009055905550565b6040518060800160405280600160ff168152602001600260ff168152602001600360ff168152602001600460ff16815250600090600461017e9291906102af565b5061018960016100c0565b60036000805490501461019f5761019e610471565b5b6001600080815481106101b5576101b4610413565b5b9060005260206000200154146101ce576101cd610471565b5b600460006001815481106101e5576101e4610413565b5b9060005260206000200154146101fe576101fd610471565b5b6003600060028154811061021557610214610413565b5b90600052602060002001541461022e5761022d610471565b5b61023860026100c0565b60026000805490501461024e5761024d610471565b5b60016000808154811061026457610263610413565b5b90600052602060002001541461027d5761027c610471565b5b6004600060018154811061029457610293610413565b5b9060005260206000200154146102ad576102ac610471565b5b565b8280548282559060005260206000209081019282156102f0579160200282015b828111156102ef578251829060ff169055916020019190600101906102cf565b5b5090506102fd9190610301565b5090565b5b8082111561031a576000816000905550600101610302565b5090565b600080fd5b6000819050919050565b61033681610323565b811461034157600080fd5b50565b6000813590506103538161032d565b92915050565b60006020828403121561036f5761036e61031e565b5b600061037d84828501610344565b91505092915050565b61038f81610323565b82525050565b60006020820190506103aa6000830184610386565b92915050565b7f4e487b7100000000000000000000000000000000000000000000000000000000600052601160045260246000fd5b60006103ea82610323565b91506103f583610323565b925082821015610408576104076103b0565b5b828203905092915050565b7f4e487b7100000000000000000000000000000000000000000000000000000000600052603260045260246000fd5b7f4e487b7100000000000000000000000000000000000000000000000000000000600052603160045260246000fd5b7f4e487b7100000000000000000000000000000000000000000000000000000000600052600160045260246000fdfea26469706673582212203eefae461cd9a08408a0a6067dd0970b7cd98ce48fac660b971d84e5dc40abcd64736f6c634300080b0033",
  "immutableReferences": {},
  "source": "// SPDX-License-Identifier: MIT\npragma solidity ^0.8.7;\n\ncontract ArrayReplaceLast {\n    uint[] public scores;\n\n    // [1,2,3,4] = remove(1) = [1,4,3]\n    // replace the removed element postion with the last element\n    function remove(uint _index) public {\n        scores[_index] = scores[scores.length -1];\n        scores.pop();\n    }\n\n    function test() external {\n        scores = [1,2,3,4];\n        remove(1);\n        //[1,4,3]\n        assert(scores.length == 3);\n        assert(scores[0] == 1);\n        assert(scores[1] == 4);\n        assert(scores[2] == 3);\n\n        remove(2);\n        // [1,4]\n\n        assert(scores.length == 2);\n        assert(scores[0] == 1);\n        assert(scores[1] == 4);\n\n    }\n}",
  "sourcePath": "/Users/bhanuprakashkandregula/Documents/programming/code-javascript-handson/002_SolidityPuzzles/01_SolidityBasics/contracts/20_ArrayReplaceLast.sol",
  "compiler": {
    "name": "solc",
    "version": "0.8.11+commit.d7f03943.Emscripten.clang"
  },
  "schemaVersion": "3.4.4",
  "updatedAt": "2022-04-01T16:30:50.305Z",
  "devdoc": {
    "kind": "dev",
    "methods": {},
    "version": 1
  },
  "userdoc": {
    "kind": "user",
    "methods": {},
    "version": 1
  }
}