{
  "contractName": "Constants",
  "abi": [
    {
      "inputs": [],
      "name": "my_address",
      "outputs": [
        {
          "internalType": "address",
          "name": "",
          "type": "address"
        }
      ],
      "stateMutability": "view",
      "type": "function"
    },
    {
      "inputs": [],
      "name": "my_uint",
      "outputs": [
        {
          "internalType": "uint256",
          "name": "",
          "type": "uint256"
        }
      ],
      "stateMutability": "view",
      "type": "function"
    }
  ],
  "bytecode": "0x608060405234801561001057600080fd5b5061015a806100206000396000f3fe608060405234801561001057600080fd5b50600436106100365760003560e01c8063b71d2cec1461003b578063fb98dea914610059575b600080fd5b610043610077565b60405161005091906100d5565b60405180910390f35b61006161008f565b60405161006e9190610109565b60405180910390f35b734feb9f1cebd99a4eaa1843b93c254261e5560e8181565b607b81565b600073ffffffffffffffffffffffffffffffffffffffff82169050919050565b60006100bf82610094565b9050919050565b6100cf816100b4565b82525050565b60006020820190506100ea60008301846100c6565b92915050565b6000819050919050565b610103816100f0565b82525050565b600060208201905061011e60008301846100fa565b9291505056fea26469706673582212206c79d982cf24b422067fa392237df001ef7119523f832234c554c8aa95c9b85264736f6c634300080b0033",
  "immutableReferences": {},
  "source": "// SPDX-License-Identifier: MIT\npragma solidity ^0.8.7;\n\n//21442 Gas for Constants contract\ncontract Constants {\n    // If we knew some state variable will change, then its better practice to change it to contant\n    // we can save Gas this way\n    // address public myAddress = 0x4feB9F1cebD99A4eAA1843B93C254261e5560E81;\n    address public constant my_address = 0x4feB9F1cebD99A4eAA1843B93C254261e5560E81;\n    uint public constant my_uint = 123;\n}\n\n// This contract below will consume more Gas\n// 23553 Gas for Var contract\ncontract Var {\n    address public myAddress = 0x4feB9F1cebD99A4eAA1843B93C254261e5560E81;\n}",
  "sourcePath": "/Users/bhanuprakashkandregula/Documents/programming/code-javascript-handson/002_SolidityPuzzles/01_SolidityBasics/contracts/10_Constants.sol",
  "compiler": {
    "name": "solc",
    "version": "0.8.11+commit.d7f03943.Emscripten.clang"
  },
  "schemaVersion": "3.4.4",
  "updatedAt": "2022-03-31T15:35:56.336Z",
  "devdoc": {
    "kind": "dev",
    "methods": {},
    "version": 1
  },
  "userdoc": {
    "kind": "user",
    "methods": {},
    "version": 1
  }
}