{
  "contractName": "CustomErrorFunctionality",
  "abi": [
    {
      "inputs": [
        {
          "internalType": "address",
          "name": "caller",
          "type": "address"
        }
      ],
      "name": "Unauthorized",
      "type": "error"
    },
    {
      "inputs": [],
      "name": "withdraw",
      "outputs": [],
      "stateMutability": "nonpayable",
      "type": "function"
    }
  ],
  "bytecode": "0x6080604052336000806101000a81548173ffffffffffffffffffffffffffffffffffffffff021916908373ffffffffffffffffffffffffffffffffffffffff16021790555034801561005057600080fd5b506101c5806100606000396000f3fe608060405234801561001057600080fd5b506004361061002b5760003560e01c80633ccfd60b14610030575b600080fd5b61003861003a565b005b60008054906101000a900473ffffffffffffffffffffffffffffffffffffffff1673ffffffffffffffffffffffffffffffffffffffff163373ffffffffffffffffffffffffffffffffffffffff16146100ca57336040517f8e4a23d60000000000000000000000000000000000000000000000000000000081526004016100c19190610174565b60405180910390fd5b60008054906101000a900473ffffffffffffffffffffffffffffffffffffffff1673ffffffffffffffffffffffffffffffffffffffff166108fc479081150290604051600060405180830381858888f19350505050158015610130573d6000803e3d6000fd5b50565b600073ffffffffffffffffffffffffffffffffffffffff82169050919050565b600061015e82610133565b9050919050565b61016e81610153565b82525050565b60006020820190506101896000830184610165565b9291505056fea264697066735822122034b8cc9521ff7e02e059fac384a364086654fed8939db9d46cba6a694fcda97064736f6c634300080b0033",
  "immutableReferences": {},
  "source": "pragma solidity ^0.8.3;\n\n/** Functions outside contract Start ******************************************* */\n\n// Note: We can create functions outside the contract, \n// so we can make use of those to inside contract and also other \n// contracts by importing them\n\nfunction helper(uint X) view returns (uint){\n    return X * 2;\n}\n\ncontract TestHelper{\n    function test() external view returns (uint){\n        return helper(123);\n    }\n}\n\n\n\n/** Functions outside contract End ******************************************* */\n\n/** CustomErrorFunctionality Start **********************************************************/\n\n// Declaration of custom error, it could inside or outside of the contract\nerror Unauthorized(address caller);\n\ncontract CustomErrorFunctionality {\n    // Custom Error functionality\n    // Note: Longer the error message is, more is the GAS its consule whele performing the transaction\n    address payable owner = payable(msg.sender);\n    \n    function withdraw() public {\n        if(msg.sender != owner){\n            // 23642 Gas\n            //revert(\"Long error message is error error error error error errro\");\n            revert Unauthorized(msg.sender);\n        }\n        owner.transfer(address(this).balance);\n        \n    }\n} \n\n/* CustomErrorFunctionality ****************************************************************** */\n\n/* SafeMath Start ****************************************************************************** */\ncontract SafeMath {\n    // thsi function will throw an error in solidity version 0.8 and above\n    function testUnderflow() public pure returns (uint) {\n        uint x = 0;\n        x--;\n        return x;\n    }\n\n    // This will work well with underflow value in version 0.8 and above\n    function testUncheckedUnderflow() public pure returns (uint) {\n        uint x = 0;\n        unchecked { x--; }\n        return x;\n    }\n}\n/* Safemath End ********************************************************************************** */",
  "sourcePath": "/Users/bhanuprakashkandregula/Documents/programming/code-javascript-handson/002_SolidityPuzzles/01_SolidityBasics/contracts/01_SolidityBasics.sol",
  "compiler": {
    "name": "solc",
    "version": "0.8.11+commit.d7f03943.Emscripten.clang"
  },
  "schemaVersion": "3.4.4",
  "updatedAt": "2022-03-31T15:35:56.324Z",
  "devdoc": {
    "kind": "dev",
    "methods": {},
    "version": 1
  },
  "userdoc": {
    "errors": {
      "Unauthorized(address)": [
        {
          "notice": "CustomErrorFunctionality Start *********************************************************"
        }
      ]
    },
    "kind": "user",
    "methods": {},
    "version": 1
  }
}