{
  "contractName": "EnumDemo",
  "abi": [
    {
      "inputs": [
        {
          "internalType": "uint256",
          "name": "",
          "type": "uint256"
        }
      ],
      "name": "orders",
      "outputs": [
        {
          "internalType": "address",
          "name": "buyer",
          "type": "address"
        },
        {
          "internalType": "enum EnumDemo.Status",
          "name": "status",
          "type": "uint8"
        }
      ],
      "stateMutability": "view",
      "type": "function"
    },
    {
      "inputs": [],
      "name": "status",
      "outputs": [
        {
          "internalType": "enum EnumDemo.Status",
          "name": "",
          "type": "uint8"
        }
      ],
      "stateMutability": "view",
      "type": "function"
    },
    {
      "inputs": [],
      "name": "get",
      "outputs": [
        {
          "internalType": "enum EnumDemo.Status",
          "name": "",
          "type": "uint8"
        }
      ],
      "stateMutability": "view",
      "type": "function"
    },
    {
      "inputs": [
        {
          "internalType": "enum EnumDemo.Status",
          "name": "_status",
          "type": "uint8"
        }
      ],
      "name": "set",
      "outputs": [],
      "stateMutability": "nonpayable",
      "type": "function"
    },
    {
      "inputs": [],
      "name": "ship",
      "outputs": [],
      "stateMutability": "nonpayable",
      "type": "function"
    },
    {
      "inputs": [],
      "name": "reset",
      "outputs": [],
      "stateMutability": "nonpayable",
      "type": "function"
    }
  ],
  "bytecode": "0x608060405234801561001057600080fd5b506103df806100206000396000f3fe608060405234801561001057600080fd5b50600436106100625760003560e01c8063200d2ed21461006757806324b8ba5f146100855780636d4ce63c146100a1578063a85c38ef146100bf578063b6bef7b3146100f0578063d826f88f146100fa575b600080fd5b61006f610104565b60405161007c919061026a565b60405180910390f35b61009f600480360381019061009a91906102af565b610115565b005b6100a9610141565b6040516100b6919061026a565b60405180910390f35b6100d960048036038101906100d49190610312565b610157565b6040516100e7929190610380565b60405180910390f35b6100f86101b4565b005b6101026101e0565b005b60008054906101000a900460ff1681565b806000806101000a81548160ff02191690836005811115610139576101386101f3565b5b021790555050565b60008060009054906101000a900460ff16905090565b6001818154811061016757600080fd5b906000526020600020016000915090508060000160009054906101000a900473ffffffffffffffffffffffffffffffffffffffff16908060000160149054906101000a900460ff16905082565b60056000806101000a81548160ff021916908360058111156101d9576101d86101f3565b5b0217905550565b6000806101000a81549060ff0219169055565b7f4e487b7100000000000000000000000000000000000000000000000000000000600052602160045260246000fd5b60068110610233576102326101f3565b5b50565b600081905061024482610222565b919050565b600061025482610236565b9050919050565b61026481610249565b82525050565b600060208201905061027f600083018461025b565b92915050565b600080fd5b6006811061029757600080fd5b50565b6000813590506102a98161028a565b92915050565b6000602082840312156102c5576102c4610285565b5b60006102d38482850161029a565b91505092915050565b6000819050919050565b6102ef816102dc565b81146102fa57600080fd5b50565b60008135905061030c816102e6565b92915050565b60006020828403121561032857610327610285565b5b6000610336848285016102fd565b91505092915050565b600073ffffffffffffffffffffffffffffffffffffffff82169050919050565b600061036a8261033f565b9050919050565b61037a8161035f565b82525050565b60006040820190506103956000830185610371565b6103a2602083018461025b565b939250505056fea2646970667358221220d98e547648c2acecd66d62da6f7620a86917d052187fd4efc898ab5a6f5cffc364736f6c634300080b0033",
  "immutableReferences": {},
  "source": "// SPDX-License-Identifier: MIT\npragma solidity ^0.8.7;\n\n// Structs allows us to express multiple choices\n// Where as Enum allows us to express more choices\n\ncontract EnumDemo {\n    // Check shipping status\n    // Note: First item defined in the Enum will be the default value fo respective Enum\n    // Just like 0 for unit, int and address value.\n\n    // None, = 0\n    // Pending, = 1\n    // Completed, = 2\n    // Rejected, = 3\n    // Cancelled, = 4\n    // Shipped = 5\n    enum Status {\n        None, \n        Pending,\n        Completed,\n        Rejected,\n        Cancelled,\n        Shipped\n    }\n\n    Status public status;\n\n    struct Order {\n        address buyer;\n        Status status;\n    }\n\n    Order[] public orders;\n\n    function get() public view returns (Status) {\n        return status;\n    }\n\n    function set(Status _status) external {\n        status = _status;\n    }\n\n    function ship() external {\n        status = Status.Shipped;\n    }\n\n    function reset() external {\n        delete status;\n    }\n}",
  "sourcePath": "/Users/bhanuprakashkandregula/Documents/programming/code-javascript-handson/002_SolidityPuzzles/01_SolidityBasics/contracts/24_EnumDemo.sol",
  "compiler": {
    "name": "solc",
    "version": "0.8.11+commit.d7f03943.Emscripten.clang"
  },
  "schemaVersion": "3.4.4",
  "updatedAt": "2022-04-03T15:53:01.532Z",
  "devdoc": {
    "kind": "dev",
    "methods": {},
    "version": 1
  },
  "userdoc": {
    "kind": "user",
    "methods": {},
    "version": 1
  }
}