{
  "contractName": "ErrorHandling",
  "abi": [
    {
      "inputs": [
        {
          "internalType": "address",
          "name": "caller",
          "type": "address"
        },
        {
          "internalType": "uint256",
          "name": "i",
          "type": "uint256"
        }
      ],
      "name": "MyError",
      "type": "error"
    },
    {
      "inputs": [],
      "name": "number",
      "outputs": [
        {
          "internalType": "uint256",
          "name": "",
          "type": "uint256"
        }
      ],
      "stateMutability": "view",
      "type": "function"
    },
    {
      "inputs": [
        {
          "internalType": "uint256",
          "name": "_i",
          "type": "uint256"
        }
      ],
      "name": "testRequire",
      "outputs": [],
      "stateMutability": "pure",
      "type": "function"
    },
    {
      "inputs": [
        {
          "internalType": "uint256",
          "name": "_i",
          "type": "uint256"
        }
      ],
      "name": "testRevert",
      "outputs": [],
      "stateMutability": "pure",
      "type": "function"
    },
    {
      "inputs": [],
      "name": "testAssert",
      "outputs": [],
      "stateMutability": "view",
      "type": "function"
    },
    {
      "inputs": [
        {
          "internalType": "uint256",
          "name": "_i",
          "type": "uint256"
        }
      ],
      "name": "testCustomeError",
      "outputs": [],
      "stateMutability": "view",
      "type": "function"
    }
  ],
  "bytecode": "0x6080604052607b60005534801561001557600080fd5b506103aa806100256000396000f3fe608060405234801561001057600080fd5b50600436106100575760003560e01c8063209877671461005c5780632b813bc0146100785780635a3c01a8146100825780638381f58a1461009e578063b8bd717f146100bc575b600080fd5b61007660048036038101906100719190610207565b6100d8565b005b61008061011f565b005b61009c60048036038101906100979190610207565b610134565b005b6100a661017f565b6040516100b39190610243565b60405180910390f35b6100d660048036038101906100d19190610207565b610185565b005b600a81111561011c576040517f08c379a0000000000000000000000000000000000000000000000000000000008152600401610113906102bb565b60405180910390fd5b50565b607b60005414610132576101316102db565b5b565b600a81111561017c5733816040517fe2399bb800000000000000000000000000000000000000000000000000000000815260040161017392919061034b565b60405180910390fd5b50565b60005481565b600a8111156101c9576040517f08c379a00000000000000000000000000000000000000000000000000000000081526004016101c0906102bb565b60405180910390fd5b50565b600080fd5b6000819050919050565b6101e4816101d1565b81146101ef57600080fd5b50565b600081359050610201816101db565b92915050565b60006020828403121561021d5761021c6101cc565b5b600061022b848285016101f2565b91505092915050565b61023d816101d1565b82525050565b60006020820190506102586000830184610234565b92915050565b600082825260208201905092915050565b7f69203e2031300000000000000000000000000000000000000000000000000000600082015250565b60006102a560068361025e565b91506102b08261026f565b602082019050919050565b600060208201905081810360008301526102d481610298565b9050919050565b7f4e487b7100000000000000000000000000000000000000000000000000000000600052600160045260246000fd5b600073ffffffffffffffffffffffffffffffffffffffff82169050919050565b60006103358261030a565b9050919050565b6103458161032a565b82525050565b6000604082019050610360600083018561033c565b61036d6020830184610234565b939250505056fea2646970667358221220cf692fae9c3d7982d475d21450228354831b32048bc6332d4b5d3be26e30893864736f6c634300080b0033",
  "immutableReferences": {},
  "source": "// SPDX-License-Identifier: MIT\npragma solidity ^0.8.7;\n\n// require, revert, assert\n// -gas refund, state updates are reverted\n// cusrom error - save gas\ncontract ErrorHandling {\n\n    function testRequire(uint _i) public pure {\n        require(_i <= 10, \"i > 10\"); // The longer the error message, more gas is consumed\n        // code goes here\n    }\n\n    function testRevert(uint _i) public pure {\n        if(_i > 10){\n            revert(\"i > 10\");\n        }\n    }\n\n    uint public number = 123;\n    function testAssert() public view {\n        assert(number == 123);\n    }\n\n    error MyError(address caller, uint i);\n\n    function testCustomeError(uint _i) public view {\n        // require(_i <= 10, \"very very very lomg error message, incase\");\n        if(_i > 10){\n            revert MyError(msg.sender, _i);\n        }\n    }\n\n}",
  "sourcePath": "/Users/bhanuprakashkandregula/Documents/programming/code-javascript-handson/002_SolidityPuzzles/01_SolidityBasics/contracts/13_ErrorHandling.sol",
  "compiler": {
    "name": "solc",
    "version": "0.8.11+commit.d7f03943.Emscripten.clang"
  },
  "schemaVersion": "3.4.4",
  "updatedAt": "2022-03-31T15:35:56.340Z",
  "devdoc": {
    "kind": "dev",
    "methods": {},
    "version": 1
  },
  "userdoc": {
    "kind": "user",
    "methods": {},
    "version": 1
  }
}