{
  "contractName": "ExploreDataTypes",
  "abi": [
    {
      "inputs": [],
      "name": "addr",
      "outputs": [
        {
          "internalType": "address",
          "name": "",
          "type": "address"
        }
      ],
      "stateMutability": "view",
      "type": "function"
    },
    {
      "inputs": [],
      "name": "age",
      "outputs": [
        {
          "internalType": "uint256",
          "name": "",
          "type": "uint256"
        }
      ],
      "stateMutability": "view",
      "type": "function"
    },
    {
      "inputs": [],
      "name": "b32",
      "outputs": [
        {
          "internalType": "bytes32",
          "name": "",
          "type": "bytes32"
        }
      ],
      "stateMutability": "view",
      "type": "function"
    },
    {
      "inputs": [],
      "name": "i",
      "outputs": [
        {
          "internalType": "int256",
          "name": "",
          "type": "int256"
        }
      ],
      "stateMutability": "view",
      "type": "function"
    },
    {
      "inputs": [],
      "name": "isValid",
      "outputs": [
        {
          "internalType": "bool",
          "name": "",
          "type": "bool"
        }
      ],
      "stateMutability": "view",
      "type": "function"
    },
    {
      "inputs": [],
      "name": "maxInt",
      "outputs": [
        {
          "internalType": "int256",
          "name": "",
          "type": "int256"
        }
      ],
      "stateMutability": "view",
      "type": "function"
    },
    {
      "inputs": [],
      "name": "minInt",
      "outputs": [
        {
          "internalType": "int256",
          "name": "",
          "type": "int256"
        }
      ],
      "stateMutability": "view",
      "type": "function"
    }
  ],
  "bytecode": "0x608060405260016000806101000a81548160ff02191690831515021790555060176001557fffffffffffffffffffffffffffffffffffffffffffffffffffffffffffffff856002557f80000000000000000000000000000000000000000000000000000000000000006003557f7fffffffffffffffffffffffffffffffffffffffffffffffffffffffffffffff600455737855a452803f280ce50243a4e24a5fdfafe2ab8d600560006101000a81548173ffffffffffffffffffffffffffffffffffffffff021916908373ffffffffffffffffffffffffffffffffffffffff1602179055507f746573740000000000000000000000000000000000000000000000000000000060001b60065534801561011757600080fd5b5061030d806101276000396000f3fe608060405234801561001057600080fd5b506004361061007d5760003560e01c80637e4e14cc1161005b5780637e4e14cc146100dc578063bb5d40eb146100fa578063e5aa3d5814610118578063f8aab238146101365761007d565b8063262a9dff14610082578063767800de146100a05780637a4c2571146100be575b600080fd5b61008a610154565b60405161009791906101c2565b60405180910390f35b6100a861015a565b6040516100b5919061021e565b60405180910390f35b6100c6610180565b6040516100d39190610252565b60405180910390f35b6100e4610186565b6040516100f19190610252565b60405180910390f35b61010261018c565b60405161010f9190610288565b60405180910390f35b61012061019d565b60405161012d9190610252565b60405180910390f35b61013e6101a3565b60405161014b91906102bc565b60405180910390f35b60015481565b600560009054906101000a900473ffffffffffffffffffffffffffffffffffffffff1681565b60045481565b60035481565b60008054906101000a900460ff1681565b60025481565b60065481565b6000819050919050565b6101bc816101a9565b82525050565b60006020820190506101d760008301846101b3565b92915050565b600073ffffffffffffffffffffffffffffffffffffffff82169050919050565b6000610208826101dd565b9050919050565b610218816101fd565b82525050565b6000602082019050610233600083018461020f565b92915050565b6000819050919050565b61024c81610239565b82525050565b60006020820190506102676000830184610243565b92915050565b60008115159050919050565b6102828161026d565b82525050565b600060208201905061029d6000830184610279565b92915050565b6000819050919050565b6102b6816102a3565b82525050565b60006020820190506102d160008301846102ad565b9291505056fea26469706673582212201e8daf2140b9ec3334e5f5f4dbc73b56a6f8f88fcf27fb42535a7cf52d67647364736f6c634300080b0033",
  "immutableReferences": {},
  "source": "pragma solidity ^0.8.7;\n\ncontract ExploreDataTypes {\n\n    // boolean is used for True (or) False\n    bool public isValid = true;\n    \n    // No negetive for uint values, always >= 0\n    // uint => uint256 is from 0 to 2**256 -1\n    // uint8 is from 0 to 2**8 -1\n    // uint16 is from 0 tp 2**16 -1\n    uint public age = 23;\n\n    // In order to use both negetive and postive numbers\n    // int256 is from -2**255 to 2**255 -1\n    // int128 is from -2**127 to 2**127 -1\n    int public i = -123;\n\n    // In order to find the Min and Max values of specific data type in solidity\n    int public minInt = type(int).min;\n    int public maxInt = type(int).max;\n\n    // address declarations\n    // Below is some address from Ganache\n    address public addr = 0x7855A452803f280cE50243a4e24a5FDfAFe2aB8D;\n\n    // bytes32 declaration\n    // This will be used whenw e work with keccack256() later\n    // Below is random bytes32 value from web\n    bytes32 public b32 = 0x7465737400000000000000000000000000000000000000000000000000000000;\n\n\n}",
  "sourcePath": "/Users/bhanuprakashkandregula/Documents/programming/code-javascript-handson/002_SolidityPuzzles/01_SolidityBasics/contracts/02_DataTypes.sol",
  "compiler": {
    "name": "solc",
    "version": "0.8.11+commit.d7f03943.Emscripten.clang"
  },
  "schemaVersion": "3.4.4",
  "updatedAt": "2022-03-30T19:27:21.657Z",
  "devdoc": {
    "kind": "dev",
    "methods": {},
    "version": 1
  },
  "userdoc": {
    "kind": "user",
    "methods": {},
    "version": 1
  }
}