{
  "contractName": "ForWhileLoopsCheck",
  "abi": [
    {
      "inputs": [],
      "name": "loops",
      "outputs": [],
      "stateMutability": "pure",
      "type": "function"
    },
    {
      "inputs": [
        {
          "internalType": "uint256",
          "name": "_n",
          "type": "uint256"
        }
      ],
      "name": "sum",
      "outputs": [
        {
          "internalType": "uint256",
          "name": "",
          "type": "uint256"
        }
      ],
      "stateMutability": "pure",
      "type": "function"
    }
  ],
  "bytecode": "0x608060405234801561001057600080fd5b506102a6806100206000396000f3fe608060405234801561001057600080fd5b50600436106100365760003560e01c8063188b85b41461003b578063938b9ceb1461006b575b600080fd5b6100556004803603810190610050919061014b565b610075565b6040516100629190610187565b60405180910390f35b6100736100b1565b005b6000806000905060005b8381116100a757808261009291906101d1565b9150808061009f90610227565b91505061007f565b5080915050919050565b60005b600a8110156100ed5760038114156100cb576100da565b60058114156100d9576100ed565b5b80806100e590610227565b9150506100b4565b5060005b600a81101561010d57808061010590610227565b9150506100f1565b50565b600080fd5b6000819050919050565b61012881610115565b811461013357600080fd5b50565b6000813590506101458161011f565b92915050565b60006020828403121561016157610160610110565b5b600061016f84828501610136565b91505092915050565b61018181610115565b82525050565b600060208201905061019c6000830184610178565b92915050565b7f4e487b7100000000000000000000000000000000000000000000000000000000600052601160045260246000fd5b60006101dc82610115565b91506101e783610115565b9250827fffffffffffffffffffffffffffffffffffffffffffffffffffffffffffffffff0382111561021c5761021b6101a2565b5b828201905092915050565b600061023282610115565b91507fffffffffffffffffffffffffffffffffffffffffffffffffffffffffffffffff821415610265576102646101a2565b5b60018201905091905056fea2646970667358221220e57177f837a4ca7d089cd7cc75d89fd055b6ecf0620545154028ca184eb2b22764736f6c634300080b0033",
  "immutableReferences": {},
  "source": "// SPDX-License-Identifier: MIT\npragma solidity ^0.8.7;\n\ncontract ForWhileLoopsCheck {\n\n    function loops() external pure {\n        for(uint i=0; i<10; i++){\n            // code here\n            if (i == 3){\n                continue; // This will skip one loop\n            } \n            // more code\n\n            if(i==5){\n                break; // this will exit the loop\n            }  \n        }\n        \n        uint j=0;\n        while(j<10){\n            // code\n            j++;\n        }\n    }\n\n    function sum(uint _n) external pure returns (uint){\n        uint s = 0;\n        for(uint i=0; i<=_n; i++){\n            s = s + i;\n        }\n        return s;\n    }\n\n\n}",
  "sourcePath": "/Users/bhanuprakashkandregula/Documents/programming/code-javascript-handson/002_SolidityPuzzles/01_SolidityBasics/contracts/12_ForWhileLoopsCheck.sol",
  "compiler": {
    "name": "solc",
    "version": "0.8.11+commit.d7f03943.Emscripten.clang"
  },
  "schemaVersion": "3.4.4",
  "updatedAt": "2022-03-31T15:35:56.339Z",
  "devdoc": {
    "kind": "dev",
    "methods": {},
    "version": 1
  },
  "userdoc": {
    "kind": "user",
    "methods": {},
    "version": 1
  }
}