{
  "contractName": "FunctionModifier",
  "abi": [
    {
      "inputs": [],
      "name": "count",
      "outputs": [
        {
          "internalType": "uint256",
          "name": "",
          "type": "uint256"
        }
      ],
      "stateMutability": "view",
      "type": "function"
    },
    {
      "inputs": [],
      "name": "paused",
      "outputs": [
        {
          "internalType": "bool",
          "name": "",
          "type": "bool"
        }
      ],
      "stateMutability": "view",
      "type": "function"
    },
    {
      "inputs": [
        {
          "internalType": "bool",
          "name": "_paused",
          "type": "bool"
        }
      ],
      "name": "setPause",
      "outputs": [],
      "stateMutability": "nonpayable",
      "type": "function"
    },
    {
      "inputs": [],
      "name": "increment",
      "outputs": [],
      "stateMutability": "nonpayable",
      "type": "function"
    },
    {
      "inputs": [],
      "name": "decrement",
      "outputs": [],
      "stateMutability": "nonpayable",
      "type": "function"
    },
    {
      "inputs": [
        {
          "internalType": "uint256",
          "name": "_x",
          "type": "uint256"
        }
      ],
      "name": "incrementBy",
      "outputs": [],
      "stateMutability": "nonpayable",
      "type": "function"
    },
    {
      "inputs": [],
      "name": "foo",
      "outputs": [],
      "stateMutability": "nonpayable",
      "type": "function"
    }
  ],
  "bytecode": "0x608060405234801561001057600080fd5b5061061c806100206000396000f3fe608060405234801561001057600080fd5b506004361061007d5760003560e01c80635c975abb1161005b5780635c975abb146100c6578063bedb86fb146100e4578063c298557814610100578063d09de08a1461010a5761007d565b806303df179c1461008257806306661abd1461009e5780632baeceb7146100bc575b600080fd5b61009c60048036038101906100979190610304565b610114565b005b6100a6610175565b6040516100b39190610340565b60405180910390f35b6100c461017b565b005b6100ce6101e4565b6040516100db9190610376565b60405180910390f35b6100fe60048036038101906100f991906103bd565b6101f5565b005b610108610211565b005b610112610260565b005b8060648110610158576040517f08c379a000000000000000000000000000000000000000000000000000000000815260040161014f90610447565b60405180910390fd5b816001600082825461016a9190610496565b925050819055505050565b60015481565b60008054906101000a900460ff16156101c9576040517f08c379a00000000000000000000000000000000000000000000000000000000081526004016101c090610538565b60405180910390fd5b60018060008282546101db9190610558565b92505081905550565b60008054906101000a900460ff1681565b806000806101000a81548160ff02191690831515021790555050565b600a600160008282546102249190610496565b92505081905550600180600082825461023d9190610496565b92505081905550600260016000828254610257919061058c565b92505081905550565b60008054906101000a900460ff16156102ae576040517f08c379a00000000000000000000000000000000000000000000000000000000081526004016102a590610538565b60405180910390fd5b60018060008282546102c09190610496565b92505081905550565b600080fd5b6000819050919050565b6102e1816102ce565b81146102ec57600080fd5b50565b6000813590506102fe816102d8565b92915050565b60006020828403121561031a576103196102c9565b5b6000610328848285016102ef565b91505092915050565b61033a816102ce565b82525050565b60006020820190506103556000830184610331565b92915050565b60008115159050919050565b6103708161035b565b82525050565b600060208201905061038b6000830184610367565b92915050565b61039a8161035b565b81146103a557600080fd5b50565b6000813590506103b781610391565b92915050565b6000602082840312156103d3576103d26102c9565b5b60006103e1848285016103a8565b91505092915050565b600082825260208201905092915050565b7f78203e3d20313030000000000000000000000000000000000000000000000000600082015250565b60006104316008836103ea565b915061043c826103fb565b602082019050919050565b6000602082019050818103600083015261046081610424565b9050919050565b7f4e487b7100000000000000000000000000000000000000000000000000000000600052601160045260246000fd5b60006104a1826102ce565b91506104ac836102ce565b9250827fffffffffffffffffffffffffffffffffffffffffffffffffffffffffffffffff038211156104e1576104e0610467565b5b828201905092915050565b7f7061757365640000000000000000000000000000000000000000000000000000600082015250565b60006105226006836103ea565b915061052d826104ec565b602082019050919050565b6000602082019050818103600083015261055181610515565b9050919050565b6000610563826102ce565b915061056e836102ce565b92508282101561058157610580610467565b5b828203905092915050565b6000610597826102ce565b91506105a2836102ce565b9250817fffffffffffffffffffffffffffffffffffffffffffffffffffffffffffffffff04831182151516156105db576105da610467565b5b82820290509291505056fea26469706673582212204d45172a187ada20a2e7a8f59c3f7097ce5fa590fb35b93fb85721b714b592ac64736f6c634300080b0033",
  "immutableReferences": {},
  "source": "// SPDX-License-Identifier: MIT\npragma solidity ^0.8.7;\n\n// Function modifier - reuse code beforte and / or after function\n// Basics, Inputs and Sandwich\ncontract FunctionModifier {\n    bool public paused;\n    uint public count;\n\n    function setPause(bool _paused) external {\n        paused = _paused;\n    }\n\n    modifier whenNotPaused(){\n        require(!paused, \"paused\");\n        _;\n    }\n\n    function increment() external whenNotPaused {\n        count += 1;\n    }\n\n    function decrement() external whenNotPaused {\n        count -= 1;\n    }\n    /************************************************* */\n    modifier cap(uint _x) {\n        require( _x < 100, \"x >= 100\");\n        _;\n    }\n\n    function incrementBy(uint _x) external cap(_x) {\n        count += _x;\n    }\n\n    /*************************************************** */\n\n    modifier sandwich(){\n        // code here\n        count += 10;\n        _;\n        // mode code here\n        count *= 2;\n    }\n\n    function foo() external sandwich {\n        count += 1;\n    }\n\n    /***************************************************** */\n}",
  "sourcePath": "/Users/bhanuprakashkandregula/Documents/programming/code-javascript-handson/002_SolidityPuzzles/01_SolidityBasics/contracts/14_FunctionModifier.sol",
  "compiler": {
    "name": "solc",
    "version": "0.8.11+commit.d7f03943.Emscripten.clang"
  },
  "schemaVersion": "3.4.4",
  "updatedAt": "2022-03-31T15:35:56.342Z",
  "devdoc": {
    "kind": "dev",
    "methods": {},
    "version": 1
  },
  "userdoc": {
    "kind": "user",
    "methods": {},
    "version": 1
  }
}