{
  "contractName": "FunctionOutputs",
  "abi": [
    {
      "inputs": [],
      "name": "returnMany",
      "outputs": [
        {
          "internalType": "uint256",
          "name": "",
          "type": "uint256"
        },
        {
          "internalType": "bool",
          "name": "",
          "type": "bool"
        }
      ],
      "stateMutability": "pure",
      "type": "function"
    },
    {
      "inputs": [],
      "name": "named",
      "outputs": [
        {
          "internalType": "uint256",
          "name": "x",
          "type": "uint256"
        },
        {
          "internalType": "bool",
          "name": "b",
          "type": "bool"
        }
      ],
      "stateMutability": "pure",
      "type": "function"
    },
    {
      "inputs": [],
      "name": "assigned",
      "outputs": [
        {
          "internalType": "uint256",
          "name": "x",
          "type": "uint256"
        },
        {
          "internalType": "bool",
          "name": "b",
          "type": "bool"
        }
      ],
      "stateMutability": "pure",
      "type": "function"
    },
    {
      "inputs": [],
      "name": "destructingAssignment",
      "outputs": [],
      "stateMutability": "pure",
      "type": "function"
    }
  ],
  "bytecode": "0x608060405234801561001057600080fd5b50610197806100206000396000f3fe608060405234801561001057600080fd5b506004361061004c5760003560e01c806345f907a8146100515780638688754414610070578063adb4d9901461008f578063d0110e78146100ae575b600080fd5b6100596100b8565b604051610067929190610138565b60405180910390f35b6100786100c6565b604051610086929190610138565b60405180910390f35b6100976100d4565b6040516100a5929190610138565b60405180910390f35b6100b66100e3565b005b600080600180915091509091565b600080600180915091509091565b60008060019150600190509091565b6000806100ee6100c6565b9150915060006100fc6100c6565b915050505050565b6000819050919050565b61011781610104565b82525050565b60008115159050919050565b6101328161011d565b82525050565b600060408201905061014d600083018561010e565b61015a6020830184610129565b939250505056fea264697066735822122032eca44c52cf4e9ee8f4bbbc76f269ba251ae67815cde6affad09071755230b064736f6c634300080b0033",
  "immutableReferences": {},
  "source": "// SPDX-License-Identifier: MIT\npragma solidity ^0.8.7;\n\n// return multiple outputs\n// Names outputs\n// Destructuring assignment\n\ncontract FunctionOutputs {\n\n    function returnMany() public pure returns(uint, bool) {\n        return (1,true);\n    }\n\n    function named() public pure returns(uint x, bool b) {\n        return (1, true);\n    }\n\n    function assigned() public pure returns (uint x, bool b) {\n        x = 1;\n        b = true;\n    }\n\n    function destructingAssignment() public pure {\n        (uint x, bool b) = returnMany();\n        (, bool _b) = returnMany();\n    }\n}",
  "sourcePath": "/Users/bhanuprakashkandregula/Documents/programming/code-javascript-handson/002_SolidityPuzzles/01_SolidityBasics/contracts/17_FunctionOutputs.sol",
  "compiler": {
    "name": "solc",
    "version": "0.8.11+commit.d7f03943.Emscripten.clang"
  },
  "schemaVersion": "3.4.4",
  "updatedAt": "2022-04-01T16:30:50.301Z",
  "devdoc": {
    "kind": "dev",
    "methods": {},
    "version": 1
  },
  "userdoc": {
    "kind": "user",
    "methods": {},
    "version": 1
  }
}