{
  "contractName": "FunctionsIntro",
  "abi": [
    {
      "inputs": [
        {
          "internalType": "uint256",
          "name": "a",
          "type": "uint256"
        },
        {
          "internalType": "uint256",
          "name": "b",
          "type": "uint256"
        }
      ],
      "name": "addition",
      "outputs": [
        {
          "internalType": "uint256",
          "name": "",
          "type": "uint256"
        }
      ],
      "stateMutability": "pure",
      "type": "function"
    },
    {
      "inputs": [
        {
          "internalType": "uint256",
          "name": "a",
          "type": "uint256"
        },
        {
          "internalType": "uint256",
          "name": "b",
          "type": "uint256"
        }
      ],
      "name": "sub",
      "outputs": [
        {
          "internalType": "uint256",
          "name": "",
          "type": "uint256"
        }
      ],
      "stateMutability": "pure",
      "type": "function"
    }
  ],
  "bytecode": "0x608060405234801561001057600080fd5b50610277806100206000396000f3fe608060405234801561001057600080fd5b50600436106100365760003560e01c806354f363a31461003b578063b67d77c51461006b575b600080fd5b6100556004803603810190610050919061011e565b61009b565b604051610062919061016d565b60405180910390f35b6100856004803603810190610080919061011e565b6100b1565b604051610092919061016d565b60405180910390f35b600081836100a991906101b7565b905092915050565b6000818311156100ce5781836100c7919061020d565b90506100dd565b82826100da919061020d565b90505b92915050565b600080fd5b6000819050919050565b6100fb816100e8565b811461010657600080fd5b50565b600081359050610118816100f2565b92915050565b60008060408385031215610135576101346100e3565b5b600061014385828601610109565b925050602061015485828601610109565b9150509250929050565b610167816100e8565b82525050565b6000602082019050610182600083018461015e565b92915050565b7f4e487b7100000000000000000000000000000000000000000000000000000000600052601160045260246000fd5b60006101c2826100e8565b91506101cd836100e8565b9250827fffffffffffffffffffffffffffffffffffffffffffffffffffffffffffffffff0382111561020257610201610188565b5b828201905092915050565b6000610218826100e8565b9150610223836100e8565b92508282101561023657610235610188565b5b82820390509291505056fea26469706673582212209c10b992bd6d1157f02f24a94c4f1b06c9036968535f73dffa7c2ab7c3e153e364736f6c634300080b0033",
  "immutableReferences": {},
  "source": "pragma solidity ^0.8.7;\n\ncontract FunctionsIntro {\n\n    // function which sums tow values and return an integer\n    // External - which means this function is visible to the world\n    // Pure - this means this function is only to read data, _;\n    // not writing any data to blockchain\n    function addition(uint a, uint b) external pure returns(uint) {\n        return a + b;\n    }\n\n    // substract two numbers\n    function sub(uint a, uint b) external pure returns(uint) {\n        if(a > b){\n            return a - b;\n        }else{\n            return b - a;\n        }\n    }\n}\n\n// truffle console\n// functionsDemo = await FunctionsIntro.deployed()\n// fucntionsDemo.addition(23,23)",
  "sourcePath": "/Users/bhanuprakashkandregula/Documents/programming/code-javascript-handson/002_SolidityPuzzles/01_SolidityBasics/contracts/03_FunctionsIntro.sol",
  "compiler": {
    "name": "solc",
    "version": "0.8.11+commit.d7f03943.Emscripten.clang"
  },
  "schemaVersion": "3.4.4",
  "updatedAt": "2022-03-31T14:03:34.496Z",
  "devdoc": {
    "kind": "dev",
    "methods": {},
    "version": 1
  },
  "userdoc": {
    "kind": "user",
    "methods": {},
    "version": 1
  }
}