{
  "contractName": "GlobalVariables",
  "abi": [
    {
      "inputs": [],
      "name": "globalVars",
      "outputs": [
        {
          "internalType": "address",
          "name": "",
          "type": "address"
        },
        {
          "internalType": "uint256",
          "name": "",
          "type": "uint256"
        },
        {
          "internalType": "uint256",
          "name": "",
          "type": "uint256"
        }
      ],
      "stateMutability": "view",
      "type": "function"
    }
  ],
  "bytecode": "0x608060405234801561001057600080fd5b50610128806100206000396000f3fe6080604052348015600f57600080fd5b506004361060285760003560e01c80637e6230f314602d575b600080fd5b60336049565b60405160409392919060c1565b60405180910390f35b60008060008033905060004290506000439050828282955095509550505050909192565b600073ffffffffffffffffffffffffffffffffffffffff82169050919050565b6000609682606d565b9050919050565b60a481608d565b82525050565b6000819050919050565b60bb8160aa565b82525050565b600060608201905060d46000830186609d565b60df602083018560b4565b60ea604083018460b4565b94935050505056fea2646970667358221220badc3c4b384558eb1e560ba90efc1345199953ce110a39b8379b104df186bd1264736f6c634300080b0033",
  "immutableReferences": {},
  "source": "// SPDX-License-Identifier: MIT\npragma solidity ^0.8.7;\n\n// GV stores info sucah as Blockchain, transaction etc\ncontract GlobalVariables {\n    function globalVars() external view returns (address, uint, uint) {\n        // current account owner address\n        address sender = msg.sender;\n\n        // time of when this function was invoked\n        uint timestamp = block.timestamp;\n\n        // Current Block Number\n        uint blockNumber = block.number;\n\n        return(sender, timestamp, blockNumber);\n    }\n}\n\n// globalVariable = await GlobalVariables.deployed()\n// globalVariable.globalVars()",
  "sourcePath": "/Users/bhanuprakashkandregula/Documents/programming/code-javascript-handson/002_SolidityPuzzles/01_SolidityBasics/contracts/06_GlobalVariables.sol",
  "compiler": {
    "name": "solc",
    "version": "0.8.11+commit.d7f03943.Emscripten.clang"
  },
  "schemaVersion": "3.4.4",
  "updatedAt": "2022-03-31T15:35:56.332Z",
  "devdoc": {
    "kind": "dev",
    "methods": {},
    "version": 1
  },
  "userdoc": {
    "kind": "user",
    "methods": {},
    "version": 1
  }
}