{
  "contractName": "Helper",
  "abi": [
    {
      "inputs": [],
      "name": "getByteCode1",
      "outputs": [
        {
          "internalType": "bytes",
          "name": "",
          "type": "bytes"
        }
      ],
      "stateMutability": "pure",
      "type": "function"
    },
    {
      "inputs": [
        {
          "internalType": "uint256",
          "name": "_x",
          "type": "uint256"
        },
        {
          "internalType": "uint256",
          "name": "_y",
          "type": "uint256"
        }
      ],
      "name": "getByteCode2",
      "outputs": [
        {
          "internalType": "bytes",
          "name": "",
          "type": "bytes"
        }
      ],
      "stateMutability": "pure",
      "type": "function"
    },
    {
      "inputs": [
        {
          "internalType": "address",
          "name": "_owner",
          "type": "address"
        }
      ],
      "name": "getCalldata",
      "outputs": [
        {
          "internalType": "bytes",
          "name": "",
          "type": "bytes"
        }
      ],
      "stateMutability": "pure",
      "type": "function"
    }
  ],
  "bytecode": "0x608060405234801561001057600080fd5b50610ad9806100206000396000f3fe608060405234801561001057600080fd5b50600436106100415760003560e01c80632064cad5146100465780635354f85514610076578063f05f9668146100a6575b600080fd5b610060600480360381019061005b919061027f565b6100c4565b60405161006d9190610345565b60405180910390f35b610090600480360381019061008b919061039d565b61015b565b60405161009d9190610345565b60405180910390f35b6100ae6101d1565b6040516100bb9190610345565b60405180910390f35b6060816040516024016100d791906103ec565b6040516020818303038152906040527f13af4035000000000000000000000000000000000000000000000000000000007bffffffffffffffffffffffffffffffffffffffffffffffffffffffff19166020820180517bffffffffffffffffffffffffffffffffffffffffffffffffffffffff83818316178352505050509050919050565b606060006040518060200161016f90610202565b6020820181038252601f19601f820116604052509050808484604051602001610199929190610416565b6040516020818303038152906040526040516020016101b992919061047b565b60405160208183030381529060405291505092915050565b60606000604051806020016101e59061020f565b6020820181038252601f19601f8201166040525090508091505090565b6102cd806104a083390190565b6103378061076d83390190565b600080fd5b600073ffffffffffffffffffffffffffffffffffffffff82169050919050565b600061024c82610221565b9050919050565b61025c81610241565b811461026757600080fd5b50565b60008135905061027981610253565b92915050565b6000602082840312156102955761029461021c565b5b60006102a38482850161026a565b91505092915050565b600081519050919050565b600082825260208201905092915050565b60005b838110156102e65780820151818401526020810190506102cb565b838111156102f5576000848401525b50505050565b6000601f19601f8301169050919050565b6000610317826102ac565b61032181856102b7565b93506103318185602086016102c8565b61033a816102fb565b840191505092915050565b6000602082019050818103600083015261035f818461030c565b905092915050565b6000819050919050565b61037a81610367565b811461038557600080fd5b50565b60008135905061039781610371565b92915050565b600080604083850312156103b4576103b361021c565b5b60006103c285828601610388565b92505060206103d385828601610388565b9150509250929050565b6103e681610241565b82525050565b600060208201905061040160008301846103dd565b92915050565b61041081610367565b82525050565b600060408201905061042b6000830185610407565b6104386020830184610407565b9392505050565b600081905092915050565b6000610455826102ac565b61045f818561043f565b935061046f8185602086016102c8565b80840191505092915050565b6000610487828561044a565b9150610493828461044a565b9150819050939250505056fe6080604052336000806101000a81548173ffffffffffffffffffffffffffffffffffffffff021916908373ffffffffffffffffffffffffffffffffffffffff160217905550346001556040516102cd3803806102cd833981810160405281019061006991906100b9565b816002819055508060038190555050506100f9565b600080fd5b6000819050919050565b61009681610083565b81146100a157600080fd5b50565b6000815190506100b38161008d565b92915050565b600080604083850312156100d0576100cf61007e565b5b60006100de858286016100a4565b92505060206100ef858286016100a4565b9150509250929050565b6101c5806101086000396000f3fe608060405234801561001057600080fd5b506004361061004c5760003560e01c80630c55699c146100515780633fa4f2451461006f5780638da5cb5b1461008d578063a56dfe4a146100ab575b600080fd5b6100596100c9565b6040516100669190610118565b60405180910390f35b6100776100cf565b6040516100849190610118565b60405180910390f35b6100956100d5565b6040516100a29190610174565b60405180910390f35b6100b36100f9565b6040516100c09190610118565b60405180910390f35b60025481565b60015481565b60008054906101000a900473ffffffffffffffffffffffffffffffffffffffff1681565b60035481565b6000819050919050565b610112816100ff565b82525050565b600060208201905061012d6000830184610109565b92915050565b600073ffffffffffffffffffffffffffffffffffffffff82169050919050565b600061015e82610133565b9050919050565b61016e81610153565b82525050565b60006020820190506101896000830184610165565b9291505056fea26469706673582212205afa1d674d78b1896eb2823bf9ad1acc2f57ea288af14ba1645bb58876abfd5964736f6c634300080b00336080604052336000806101000a81548173ffffffffffffffffffffffffffffffffffffffff021916908373ffffffffffffffffffffffffffffffffffffffff16021790555034801561005057600080fd5b506102d7806100606000396000f3fe608060405234801561001057600080fd5b50600436106100365760003560e01c806313af40351461003b5780638da5cb5b14610057575b600080fd5b610055600480360381019061005091906101cd565b610075565b005b61005f610146565b60405161006c9190610209565b60405180910390f35b60008054906101000a900473ffffffffffffffffffffffffffffffffffffffff1673ffffffffffffffffffffffffffffffffffffffff163373ffffffffffffffffffffffffffffffffffffffff1614610103576040517f08c379a00000000000000000000000000000000000000000000000000000000081526004016100fa90610281565b60405180910390fd5b806000806101000a81548173ffffffffffffffffffffffffffffffffffffffff021916908373ffffffffffffffffffffffffffffffffffffffff16021790555050565b60008054906101000a900473ffffffffffffffffffffffffffffffffffffffff1681565b600080fd5b600073ffffffffffffffffffffffffffffffffffffffff82169050919050565b600061019a8261016f565b9050919050565b6101aa8161018f565b81146101b557600080fd5b50565b6000813590506101c7816101a1565b92915050565b6000602082840312156101e3576101e261016a565b5b60006101f1848285016101b8565b91505092915050565b6102038161018f565b82525050565b600060208201905061021e60008301846101fa565b92915050565b600082825260208201905092915050565b7f4e6f74206f776e65720000000000000000000000000000000000000000000000600082015250565b600061026b600983610224565b915061027682610235565b602082019050919050565b6000602082019050818103600083015261029a8161025e565b905091905056fea2646970667358221220c5ad9be4acd68d4999977d25dc213b468df4b25d2595dfb04e004b6db459de1464736f6c634300080b0033a2646970667358221220b4c80effb632b53ab4e7e6c1e2a84d169d4bf74aa71dff4377f0699f7a3dc11264736f6c634300080b0033",
  "immutableReferences": {},
  "source": "// SPDX-License-Identifier: MIT\npragma solidity ^0.8.7;\n\n// This is bit complex, but just take the outcomes and keep the code safe.\n// will be helpfull when time comes.\n// Revisit again to understand more: \n// https://www.youtube.com/watch?v=YbRGTF1OGdM&list=PLO5VPQH6OWdVQwpQfw9rZ67O6Pjfo6q-p&index=27\n\ncontract TestContract01 {\n    address public owner = msg.sender;\n\n    function setOwner(address _owner) public {\n        require(msg.sender == owner, \"Not owner\");\n        owner = _owner;\n    }\n}\n\ncontract TestContract02 {\n    address public owner = msg.sender;\n    uint public value = msg.value;\n    uint public x;\n    uint public y;\n\n    constructor(uint _x, uint _y) payable {\n        x = _x;\n        y = _y;\n    }\n}\n\ncontract Proxy{\n    event Deploy(address);\n    fallback() external payable {}\n\n    function deploy(bytes memory _code) external payable returns (address addr) {\n        // address addr;\n        assembly {\n            // create (v, p, n)\n            // v = amount of ETH to send\n            // p = pointer in memory to start of code]\n            // n = size of code\n\n            // to skip the forst 32 bytes in bytecode = 0x20\n            // original compiled code startat after the first 32 bytes of code = mload\n            addr := create(callvalue(), add(_code, 0x20), mload(_code))\n        }\n\n        // return addr;\n\n        require(addr != address(0), \"deploy failed\");\n        emit Deploy(addr);\n    }\n\n    function execute(address _target, bytes memory _data) external payable {\n        (bool success, ) = _target.call{value: msg.value}(_data);\n        require(success, \"failed\");\n    }\n}\n\n// we can also extract the bytecode from external tools like web3.js or ether.js etc\n// But to simplyfi we are writing another helper contract here.\ncontract Helper {\n    function getByteCode1() external pure returns (bytes memory) {\n        bytes memory bytecode = type(TestContract01).creationCode;\n        return bytecode;\n    }\n\n    function getByteCode2(uint _x, uint _y) external pure returns (bytes memory) {\n        bytes memory bytecode = type(TestContract02).creationCode;\n        return abi.encodePacked(bytecode, abi.encode(_x, _y));\n    }\n\n    function getCalldata(address _owner) external pure returns (bytes memory) {\n        return abi.encodeWithSignature(\"setOwner(address)\", _owner);\n    }\n}\n\n",
  "sourcePath": "/Users/bhanuprakashkandregula/Documents/programming/code-javascript-handson/002_SolidityPuzzles/01_SolidityBasics/contracts/25_DeployAnyContract.sol",
  "compiler": {
    "name": "solc",
    "version": "0.8.11+commit.d7f03943.Emscripten.clang"
  },
  "schemaVersion": "3.4.4",
  "updatedAt": "2022-04-03T15:53:01.534Z",
  "devdoc": {
    "kind": "dev",
    "methods": {},
    "version": 1
  },
  "userdoc": {
    "kind": "user",
    "methods": {},
    "version": 1
  }
}