{
  "contractName": "IretableMapping",
  "abi": [
    {
      "inputs": [
        {
          "internalType": "address",
          "name": "",
          "type": "address"
        }
      ],
      "name": "balances",
      "outputs": [
        {
          "internalType": "uint256",
          "name": "",
          "type": "uint256"
        }
      ],
      "stateMutability": "view",
      "type": "function"
    },
    {
      "inputs": [
        {
          "internalType": "address",
          "name": "",
          "type": "address"
        }
      ],
      "name": "inserted",
      "outputs": [
        {
          "internalType": "bool",
          "name": "",
          "type": "bool"
        }
      ],
      "stateMutability": "view",
      "type": "function"
    },
    {
      "inputs": [
        {
          "internalType": "uint256",
          "name": "",
          "type": "uint256"
        }
      ],
      "name": "keys",
      "outputs": [
        {
          "internalType": "address",
          "name": "",
          "type": "address"
        }
      ],
      "stateMutability": "view",
      "type": "function"
    },
    {
      "inputs": [
        {
          "internalType": "address",
          "name": "_key",
          "type": "address"
        },
        {
          "internalType": "uint256",
          "name": "_val",
          "type": "uint256"
        }
      ],
      "name": "set",
      "outputs": [],
      "stateMutability": "nonpayable",
      "type": "function"
    },
    {
      "inputs": [],
      "name": "getSize",
      "outputs": [
        {
          "internalType": "uint256",
          "name": "",
          "type": "uint256"
        }
      ],
      "stateMutability": "view",
      "type": "function"
    },
    {
      "inputs": [],
      "name": "first",
      "outputs": [
        {
          "internalType": "uint256",
          "name": "",
          "type": "uint256"
        }
      ],
      "stateMutability": "view",
      "type": "function"
    },
    {
      "inputs": [],
      "name": "last",
      "outputs": [
        {
          "internalType": "uint256",
          "name": "",
          "type": "uint256"
        }
      ],
      "stateMutability": "view",
      "type": "function"
    },
    {
      "inputs": [
        {
          "internalType": "uint256",
          "name": "_i",
          "type": "uint256"
        }
      ],
      "name": "get",
      "outputs": [
        {
          "internalType": "uint256",
          "name": "",
          "type": "uint256"
        }
      ],
      "stateMutability": "view",
      "type": "function"
    }
  ],
  "bytecode": "0x608060405234801561001057600080fd5b506107bf806100206000396000f3fe608060405234801561001057600080fd5b50600436106100885760003560e01c806347799da81161005b57806347799da8146101275780637cd380f1146101455780639507d39a14610175578063de8fa431146101a557610088565b80630cb6aaf11461008d57806327e235e3146100bd5780633825d828146100ed5780633df4ddf414610109575b600080fd5b6100a760048036038101906100a29190610575565b6101c3565b6040516100b491906105e3565b60405180910390f35b6100d760048036038101906100d2919061062a565b610202565b6040516100e49190610666565b60405180910390f35b61010760048036038101906101029190610681565b61021a565b005b61011161036d565b60405161011e9190610666565b60405180910390f35b61012f6103f2565b60405161013c9190610666565b60405180910390f35b61015f600480360381019061015a919061062a565b610487565b60405161016c91906106dc565b60405180910390f35b61018f600480360381019061018a9190610575565b6104a7565b60405161019c9190610666565b60405180910390f35b6101ad61052d565b6040516101ba9190610666565b60405180910390f35b600281815481106101d357600080fd5b906000526020600020016000915054906101000a900473ffffffffffffffffffffffffffffffffffffffff1681565b60006020528060005260406000206000915090505481565b806000808473ffffffffffffffffffffffffffffffffffffffff1673ffffffffffffffffffffffffffffffffffffffff16815260200190815260200160002081905550600160008373ffffffffffffffffffffffffffffffffffffffff1673ffffffffffffffffffffffffffffffffffffffff16815260200190815260200160002060009054906101000a900460ff166103695760018060008473ffffffffffffffffffffffffffffffffffffffff1673ffffffffffffffffffffffffffffffffffffffff16815260200190815260200160002060006101000a81548160ff0219169083151502179055506002829080600181540180825580915050600190039060005260206000200160009091909190916101000a81548173ffffffffffffffffffffffffffffffffffffffff021916908373ffffffffffffffffffffffffffffffffffffffff1602179055505b5050565b60008060006002600081548110610387576103866106f7565b5b9060005260206000200160009054906101000a900473ffffffffffffffffffffffffffffffffffffffff1673ffffffffffffffffffffffffffffffffffffffff1673ffffffffffffffffffffffffffffffffffffffff16815260200190815260200160002054905090565b60008060006002600160028054905061040b9190610755565b8154811061041c5761041b6106f7565b5b9060005260206000200160009054906101000a900473ffffffffffffffffffffffffffffffffffffffff1673ffffffffffffffffffffffffffffffffffffffff1673ffffffffffffffffffffffffffffffffffffffff16815260200190815260200160002054905090565b60016020528060005260406000206000915054906101000a900460ff1681565b6000806000600284815481106104c0576104bf6106f7565b5b9060005260206000200160009054906101000a900473ffffffffffffffffffffffffffffffffffffffff1673ffffffffffffffffffffffffffffffffffffffff1673ffffffffffffffffffffffffffffffffffffffff168152602001908152602001600020549050919050565b6000600280549050905090565b600080fd5b6000819050919050565b6105528161053f565b811461055d57600080fd5b50565b60008135905061056f81610549565b92915050565b60006020828403121561058b5761058a61053a565b5b600061059984828501610560565b91505092915050565b600073ffffffffffffffffffffffffffffffffffffffff82169050919050565b60006105cd826105a2565b9050919050565b6105dd816105c2565b82525050565b60006020820190506105f860008301846105d4565b92915050565b610607816105c2565b811461061257600080fd5b50565b600081359050610624816105fe565b92915050565b6000602082840312156106405761063f61053a565b5b600061064e84828501610615565b91505092915050565b6106608161053f565b82525050565b600060208201905061067b6000830184610657565b92915050565b600080604083850312156106985761069761053a565b5b60006106a685828601610615565b92505060206106b785828601610560565b9150509250929050565b60008115159050919050565b6106d6816106c1565b82525050565b60006020820190506106f160008301846106cd565b92915050565b7f4e487b7100000000000000000000000000000000000000000000000000000000600052603260045260246000fd5b7f4e487b7100000000000000000000000000000000000000000000000000000000600052601160045260246000fd5b60006107608261053f565b915061076b8361053f565b92508282101561077e5761077d610726565b5b82820390509291505056fea26469706673582212204b67e1210d3caea7e6041eb9ed78c6a605153684f7433a3d85385d7eafa7086264736f6c634300080b0033",
  "immutableReferences": {},
  "source": "// SPDX-License-Identifier: MIT\npragma solidity ^0.8.7;\n\ncontract IretableMapping {\n    mapping(address => uint) public balances;\n    mapping(address => bool) public inserted; // we will set the mapping inserted to true, when we have balance to that specific address\n    address[] public keys;\n\n    function set(address _key, uint _val) external {\n        balances[_key] = _val;\n\n        if(!inserted[_key]){\n            inserted[_key] = true;\n            keys.push(_key);\n        }\n    }\n\n    function getSize() external view returns(uint){\n        return keys.length;\n    }\n\n    function first() external view returns (uint){\n        return balances[keys[0]];\n    }\n\n    function last() external view returns (uint){\n        return balances[keys[keys.length - 1 ]];\n    }\n\n    function get(uint _i) external view returns (uint) {\n        return balances[keys[_i]];\n    }\n}",
  "sourcePath": "/Users/bhanuprakashkandregula/Documents/programming/code-javascript-handson/002_SolidityPuzzles/01_SolidityBasics/contracts/22_IretableMapping.sol",
  "compiler": {
    "name": "solc",
    "version": "0.8.11+commit.d7f03943.Emscripten.clang"
  },
  "schemaVersion": "3.4.4",
  "updatedAt": "2022-04-01T16:30:50.309Z",
  "devdoc": {
    "kind": "dev",
    "methods": {},
    "version": 1
  },
  "userdoc": {
    "kind": "user",
    "methods": {},
    "version": 1
  }
}