{
  "contractName": "MappingDemo",
  "abi": [
    {
      "inputs": [
        {
          "internalType": "address",
          "name": "",
          "type": "address"
        }
      ],
      "name": "balances",
      "outputs": [
        {
          "internalType": "uint256",
          "name": "",
          "type": "uint256"
        }
      ],
      "stateMutability": "view",
      "type": "function"
    },
    {
      "inputs": [
        {
          "internalType": "address",
          "name": "",
          "type": "address"
        },
        {
          "internalType": "address",
          "name": "",
          "type": "address"
        }
      ],
      "name": "isFriend",
      "outputs": [
        {
          "internalType": "bool",
          "name": "",
          "type": "bool"
        }
      ],
      "stateMutability": "view",
      "type": "function"
    },
    {
      "inputs": [],
      "name": "example",
      "outputs": [],
      "stateMutability": "nonpayable",
      "type": "function"
    }
  ],
  "bytecode": "0x608060405234801561001057600080fd5b506104e8806100206000396000f3fe608060405234801561001057600080fd5b50600436106100415760003560e01c806327e235e3146100465780632da5d42e1461007657806354353f2f146100a6575b600080fd5b610060600480360381019061005b9190610356565b6100b0565b60405161006d919061039c565b60405180910390f35b610090600480360381019061008b91906103b7565b6100c8565b60405161009d9190610412565b60405180910390f35b6100ae6100f7565b005b60006020528060005260406000206000915090505481565b60016020528160005260406000206020528060005260406000206000915091509054906101000a900460ff1681565b607b6000803373ffffffffffffffffffffffffffffffffffffffff1673ffffffffffffffffffffffffffffffffffffffff1681526020019081526020016000208190555060008060003373ffffffffffffffffffffffffffffffffffffffff1673ffffffffffffffffffffffffffffffffffffffff1681526020019081526020016000205490506000806000600173ffffffffffffffffffffffffffffffffffffffff1673ffffffffffffffffffffffffffffffffffffffff1681526020019081526020016000205490506101c86000803373ffffffffffffffffffffffffffffffffffffffff1673ffffffffffffffffffffffffffffffffffffffff1681526020019081526020016000206000828254610212919061045c565b925050819055506000803373ffffffffffffffffffffffffffffffffffffffff1673ffffffffffffffffffffffffffffffffffffffff1681526020019081526020016000206000905560018060003373ffffffffffffffffffffffffffffffffffffffff1673ffffffffffffffffffffffffffffffffffffffff16815260200190815260200160002060003073ffffffffffffffffffffffffffffffffffffffff1673ffffffffffffffffffffffffffffffffffffffff16815260200190815260200160002060006101000a81548160ff0219169083151502179055505050565b600080fd5b600073ffffffffffffffffffffffffffffffffffffffff82169050919050565b6000610323826102f8565b9050919050565b61033381610318565b811461033e57600080fd5b50565b6000813590506103508161032a565b92915050565b60006020828403121561036c5761036b6102f3565b5b600061037a84828501610341565b91505092915050565b6000819050919050565b61039681610383565b82525050565b60006020820190506103b1600083018461038d565b92915050565b600080604083850312156103ce576103cd6102f3565b5b60006103dc85828601610341565b92505060206103ed85828601610341565b9150509250929050565b60008115159050919050565b61040c816103f7565b82525050565b60006020820190506104276000830184610403565b92915050565b7f4e487b7100000000000000000000000000000000000000000000000000000000600052601160045260246000fd5b600061046782610383565b915061047283610383565b9250827fffffffffffffffffffffffffffffffffffffffffffffffffffffffffffffffff038211156104a7576104a661042d565b5b82820190509291505056fea2646970667358221220fceba4b86d22a8b3bda5310776b55b33380d45b937cb7bc75dbbe14e8a9f647064736f6c634300080b0033",
  "immutableReferences": {},
  "source": "// SPDX-License-Identifier: MIT\npragma solidity ^0.8.7;\n\n// Mapping syntax\n// How to declare a mapping - simple and nested\n// Set, Get and Delete\n\n// [ 'Bhanu', 'Raghu', 'Shyam']\n// { \"Bhanu\" : true, \"Raghu\": true, \"Shyam\": true }\n\n// In order to find an element in an array, we have to traverse loop upto lenght of the array\n// But if we use mappingw, we can to right at first shot to find out searching element\ncontract MappingDemo {\n    // mapping(key => value)\n    mapping(address => uint) public balances;\n    mapping(address=> mapping(address => bool)) public isFriend;\n\n    function example() external {\n        balances[msg.sender] = 123;\n        uint bal = balances[msg.sender];\n        uint bal2 = balances[address(1)]; // 0\n\n        balances[msg.sender] += 456; // 123 + 456 = 579\n        delete balances[msg.sender]; // 0\n\n        isFriend[msg.sender][address(this)] = true;\n\n    }\n}",
  "sourcePath": "/Users/bhanuprakashkandregula/Documents/programming/code-javascript-handson/002_SolidityPuzzles/01_SolidityBasics/contracts/21_Mapping.sol",
  "compiler": {
    "name": "solc",
    "version": "0.8.11+commit.d7f03943.Emscripten.clang"
  },
  "schemaVersion": "3.4.4",
  "updatedAt": "2022-04-01T16:30:50.307Z",
  "devdoc": {
    "kind": "dev",
    "methods": {},
    "version": 1
  },
  "userdoc": {
    "kind": "user",
    "methods": {},
    "version": 1
  }
}