{
  "contractName": "Proxy",
  "abi": [
    {
      "anonymous": false,
      "inputs": [
        {
          "indexed": false,
          "internalType": "address",
          "name": "",
          "type": "address"
        }
      ],
      "name": "Deploy",
      "type": "event"
    },
    {
      "stateMutability": "payable",
      "type": "fallback"
    },
    {
      "inputs": [
        {
          "internalType": "bytes",
          "name": "_code",
          "type": "bytes"
        }
      ],
      "name": "deploy",
      "outputs": [
        {
          "internalType": "address",
          "name": "addr",
          "type": "address"
        }
      ],
      "stateMutability": "payable",
      "type": "function"
    },
    {
      "inputs": [
        {
          "internalType": "address",
          "name": "_target",
          "type": "address"
        },
        {
          "internalType": "bytes",
          "name": "_data",
          "type": "bytes"
        }
      ],
      "name": "execute",
      "outputs": [],
      "stateMutability": "payable",
      "type": "function"
    }
  ],
  "bytecode": "0x608060405234801561001057600080fd5b5061061d806100206000396000f3fe60806040526004361061002c5760003560e01c80627743601461002f5780631cff79cd1461005f5761002d565b5b005b61004960048036038101906100449190610340565b61007b565b60405161005691906103ca565b60405180910390f35b61007960048036038101906100749190610411565b610133565b005b600081516020830134f09050600073ffffffffffffffffffffffffffffffffffffffff168173ffffffffffffffffffffffffffffffffffffffff1614156100f7576040517f08c379a00000000000000000000000000000000000000000000000000000000081526004016100ee906104ca565b60405180910390fd5b7f55ea6c6b31543d8e2ec6a72f71a79c0f4b72ed0d4757172b043d8f4f4cd848488160405161012691906103ca565b60405180910390a1919050565b60008273ffffffffffffffffffffffffffffffffffffffff16348360405161015b9190610564565b60006040518083038185875af1925050503d8060008114610198576040519150601f19603f3d011682016040523d82523d6000602084013e61019d565b606091505b50509050806101e1576040517f08c379a00000000000000000000000000000000000000000000000000000000081526004016101d8906105c7565b60405180910390fd5b505050565b6000604051905090565b600080fd5b600080fd5b600080fd5b600080fd5b6000601f19601f8301169050919050565b7f4e487b7100000000000000000000000000000000000000000000000000000000600052604160045260246000fd5b61024d82610204565b810181811067ffffffffffffffff8211171561026c5761026b610215565b5b80604052505050565b600061027f6101e6565b905061028b8282610244565b919050565b600067ffffffffffffffff8211156102ab576102aa610215565b5b6102b482610204565b9050602081019050919050565b82818337600083830152505050565b60006102e36102de84610290565b610275565b9050828152602081018484840111156102ff576102fe6101ff565b5b61030a8482856102c1565b509392505050565b600082601f830112610327576103266101fa565b5b81356103378482602086016102d0565b91505092915050565b600060208284031215610356576103556101f0565b5b600082013567ffffffffffffffff811115610374576103736101f5565b5b61038084828501610312565b91505092915050565b600073ffffffffffffffffffffffffffffffffffffffff82169050919050565b60006103b482610389565b9050919050565b6103c4816103a9565b82525050565b60006020820190506103df60008301846103bb565b92915050565b6103ee816103a9565b81146103f957600080fd5b50565b60008135905061040b816103e5565b92915050565b60008060408385031215610428576104276101f0565b5b6000610436858286016103fc565b925050602083013567ffffffffffffffff811115610457576104566101f5565b5b61046385828601610312565b9150509250929050565b600082825260208201905092915050565b7f6465706c6f79206661696c656400000000000000000000000000000000000000600082015250565b60006104b4600d8361046d565b91506104bf8261047e565b602082019050919050565b600060208201905081810360008301526104e3816104a7565b9050919050565b600081519050919050565b600081905092915050565b60005b8381101561051e578082015181840152602081019050610503565b8381111561052d576000848401525b50505050565b600061053e826104ea565b61054881856104f5565b9350610558818560208601610500565b80840191505092915050565b60006105708284610533565b915081905092915050565b7f6661696c65640000000000000000000000000000000000000000000000000000600082015250565b60006105b160068361046d565b91506105bc8261057b565b602082019050919050565b600060208201905081810360008301526105e0816105a4565b905091905056fea2646970667358221220ef51c9b0476e94dc095789eddc5f5fcb411f8a5cbf6b1dbc6b3519a53d965d6064736f6c634300080b0033",
  "immutableReferences": {},
  "source": "// SPDX-License-Identifier: MIT\npragma solidity ^0.8.7;\n\n// This is bit complex, but just take the outcomes and keep the code safe.\n// will be helpfull when time comes.\n// Revisit again to understand more: \n// https://www.youtube.com/watch?v=YbRGTF1OGdM&list=PLO5VPQH6OWdVQwpQfw9rZ67O6Pjfo6q-p&index=27\n\ncontract TestContract01 {\n    address public owner = msg.sender;\n\n    function setOwner(address _owner) public {\n        require(msg.sender == owner, \"Not owner\");\n        owner = _owner;\n    }\n}\n\ncontract TestContract02 {\n    address public owner = msg.sender;\n    uint public value = msg.value;\n    uint public x;\n    uint public y;\n\n    constructor(uint _x, uint _y) payable {\n        x = _x;\n        y = _y;\n    }\n}\n\ncontract Proxy{\n    event Deploy(address);\n    fallback() external payable {}\n\n    function deploy(bytes memory _code) external payable returns (address addr) {\n        // address addr;\n        assembly {\n            // create (v, p, n)\n            // v = amount of ETH to send\n            // p = pointer in memory to start of code]\n            // n = size of code\n\n            // to skip the forst 32 bytes in bytecode = 0x20\n            // original compiled code startat after the first 32 bytes of code = mload\n            addr := create(callvalue(), add(_code, 0x20), mload(_code))\n        }\n\n        // return addr;\n\n        require(addr != address(0), \"deploy failed\");\n        emit Deploy(addr);\n    }\n\n    function execute(address _target, bytes memory _data) external payable {\n        (bool success, ) = _target.call{value: msg.value}(_data);\n        require(success, \"failed\");\n    }\n}\n\n// we can also extract the bytecode from external tools like web3.js or ether.js etc\n// But to simplyfi we are writing another helper contract here.\ncontract Helper {\n    function getByteCode1() external pure returns (bytes memory) {\n        bytes memory bytecode = type(TestContract01).creationCode;\n        return bytecode;\n    }\n\n    function getByteCode2(uint _x, uint _y) external pure returns (bytes memory) {\n        bytes memory bytecode = type(TestContract02).creationCode;\n        return abi.encodePacked(bytecode, abi.encode(_x, _y));\n    }\n\n    function getCalldata(address _owner) external pure returns (bytes memory) {\n        return abi.encodeWithSignature(\"setOwner(address)\", _owner);\n    }\n}\n\n",
  "sourcePath": "/Users/bhanuprakashkandregula/Documents/programming/code-javascript-handson/002_SolidityPuzzles/01_SolidityBasics/contracts/25_DeployAnyContract.sol",
  "compiler": {
    "name": "solc",
    "version": "0.8.11+commit.d7f03943.Emscripten.clang"
  },
  "schemaVersion": "3.4.4",
  "updatedAt": "2022-04-03T15:53:01.537Z",
  "devdoc": {
    "kind": "dev",
    "methods": {},
    "version": 1
  },
  "userdoc": {
    "kind": "user",
    "methods": {},
    "version": 1
  }
}