{
  "contractName": "SafeMath",
  "abi": [
    {
      "inputs": [],
      "name": "testUnderflow",
      "outputs": [
        {
          "internalType": "uint256",
          "name": "",
          "type": "uint256"
        }
      ],
      "stateMutability": "pure",
      "type": "function"
    },
    {
      "inputs": [],
      "name": "testUncheckedUnderflow",
      "outputs": [
        {
          "internalType": "uint256",
          "name": "",
          "type": "uint256"
        }
      ],
      "stateMutability": "pure",
      "type": "function"
    }
  ],
  "bytecode": "0x608060405234801561001057600080fd5b5061016d806100206000396000f3fe608060405234801561001057600080fd5b50600436106100365760003560e01c80637f3f6a731461003b578063a9a3e61114610059575b600080fd5b610043610077565b60405161005091906100c3565b60405180910390f35b610061610093565b60405161006e91906100c3565b60405180910390f35b6000806000905080806100899061010d565b9150508091505090565b600080600090508080600190039150508091505090565b6000819050919050565b6100bd816100aa565b82525050565b60006020820190506100d860008301846100b4565b92915050565b7f4e487b7100000000000000000000000000000000000000000000000000000000600052601160045260246000fd5b6000610118826100aa565b9150600082141561012c5761012b6100de565b5b60018203905091905056fea264697066735822122087087f40cc7a9a4f0bac04b4bf4f8d486834946877c64444f6b365ee87be057c64736f6c634300080b0033",
  "immutableReferences": {},
  "source": "pragma solidity ^0.8.3;\n\n/** Functions outside contract Start ******************************************* */\n\n// Note: We can create functions outside the contract, \n// so we can make use of those to inside contract and also other \n// contracts by importing them\n\nfunction helper(uint X) view returns (uint){\n    return X * 2;\n}\n\ncontract TestHelper{\n    function test() external view returns (uint){\n        return helper(123);\n    }\n}\n\n\n\n/** Functions outside contract End ******************************************* */\n\n/** CustomErrorFunctionality Start **********************************************************/\n\n// Declaration of custom error, it could inside or outside of the contract\nerror Unauthorized(address caller);\n\ncontract CustomErrorFunctionality {\n    // Custom Error functionality\n    // Note: Longer the error message is, more is the GAS its consule whele performing the transaction\n    address payable owner = payable(msg.sender);\n    \n    function withdraw() public {\n        if(msg.sender != owner){\n            // 23642 Gas\n            //revert(\"Long error message is error error error error error errro\");\n            revert Unauthorized(msg.sender);\n        }\n        owner.transfer(address(this).balance);\n        \n    }\n} \n\n/* CustomErrorFunctionality ****************************************************************** */\n\n/* SafeMath Start ****************************************************************************** */\ncontract SafeMath {\n    // thsi function will throw an error in solidity version 0.8 and above\n    function testUnderflow() public pure returns (uint) {\n        uint x = 0;\n        x--;\n        return x;\n    }\n\n    // This will work well with underflow value in version 0.8 and above\n    function testUncheckedUnderflow() public pure returns (uint) {\n        uint x = 0;\n        unchecked { x--; }\n        return x;\n    }\n}\n/* Safemath End ********************************************************************************** */",
  "sourcePath": "/Users/bhanuprakashkandregula/Documents/programming/code-javascript-handson/002_SolidityPuzzles/01_SolidityBasics/contracts/01_SolidityBasics.sol",
  "compiler": {
    "name": "solc",
    "version": "0.8.11+commit.d7f03943.Emscripten.clang"
  },
  "schemaVersion": "3.4.4",
  "updatedAt": "2022-03-31T15:35:56.327Z",
  "devdoc": {
    "kind": "dev",
    "methods": {},
    "version": 1
  },
  "userdoc": {
    "kind": "user",
    "methods": {},
    "version": 1
  }
}