{
  "contractName": "StorageMemoryCalldata",
  "abi": [
    {
      "inputs": [
        {
          "internalType": "address",
          "name": "",
          "type": "address"
        }
      ],
      "name": "myStructs",
      "outputs": [
        {
          "internalType": "uint256",
          "name": "foo",
          "type": "uint256"
        },
        {
          "internalType": "string",
          "name": "text",
          "type": "string"
        }
      ],
      "stateMutability": "view",
      "type": "function"
    },
    {
      "inputs": [
        {
          "internalType": "uint256[]",
          "name": "y",
          "type": "uint256[]"
        },
        {
          "internalType": "string",
          "name": "s",
          "type": "string"
        }
      ],
      "name": "example02",
      "outputs": [
        {
          "internalType": "uint256[]",
          "name": "",
          "type": "uint256[]"
        }
      ],
      "stateMutability": "nonpayable",
      "type": "function"
    },
    {
      "inputs": [
        {
          "internalType": "uint256[]",
          "name": "y",
          "type": "uint256[]"
        },
        {
          "internalType": "string",
          "name": "s",
          "type": "string"
        }
      ],
      "name": "example01",
      "outputs": [
        {
          "internalType": "uint256[]",
          "name": "",
          "type": "uint256[]"
        }
      ],
      "stateMutability": "nonpayable",
      "type": "function"
    }
  ],
  "bytecode": "0x608060405234801561001057600080fd5b50610ebc806100206000396000f3fe608060405234801561001057600080fd5b50600436106100415760003560e01c806334854b7b14610046578063b43c5d3314610076578063f3f0b6af146100a7575b600080fd5b610060600480360381019061005b9190610a1a565b6100d7565b60405161006d9190610b50565b60405180910390f35b610090600480360381019061008b9190610bd0565b61038d565b60405161009e929190610c94565b60405180910390f35b6100c160048036038101906100bc9190610d75565b610439565b6040516100ce9190610b50565b60405180910390f35b60606040518060400160405280607b81526020016040518060400160405280600381526020017f62617200000000000000000000000000000000000000000000000000000000008152508152506000803373ffffffffffffffffffffffffffffffffffffffff1673ffffffffffffffffffffffffffffffffffffffff16815260200190815260200160002060008201518160000155602082015181600101908051906020019061018892919061071f565b5090505060008060003373ffffffffffffffffffffffffffffffffffffffff1673ffffffffffffffffffffffffffffffffffffffff16815260200190815260200160002090506040518060400160405280600381526020017f666f6f000000000000000000000000000000000000000000000000000000000081525081600101908051906020019061021b92919061071f565b5060008060003373ffffffffffffffffffffffffffffffffffffffff1673ffffffffffffffffffffffffffffffffffffffff1681526020019081526020016000206040518060400160405290816000820154815260200160018201805461028190610e25565b80601f01602080910402602001604051908101604052809291908181526020018280546102ad90610e25565b80156102fa5780601f106102cf576101008083540402835291602001916102fa565b820191906000526020600020905b8154815290600101906020018083116102dd57829003601f168201915b50505050508152505090506101c88160000181815250506000600367ffffffffffffffff81111561032e5761032d6107ec565b5b60405190808252806020026020018201604052801561035c5781602001602082028036833780820191505090505b50905060ea8160008151811061037557610374610e57565b5b60200260200101818152505080935050505092915050565b60006020528060005260406000206000915090508060000154908060010180546103b690610e25565b80601f01602080910402602001604051908101604052809291908181526020018280546103e290610e25565b801561042f5780601f106104045761010080835404028352916020019161042f565b820191906000526020600020905b81548152906001019060200180831161041257829003601f168201915b5050505050905082565b60606040518060400160405280607b81526020016040518060400160405280600381526020017f62617200000000000000000000000000000000000000000000000000000000008152508152506000803373ffffffffffffffffffffffffffffffffffffffff1673ffffffffffffffffffffffffffffffffffffffff1681526020019081526020016000206000820151816000015560208201518160010190805190602001906104ea92919061071f565b5090505060008060003373ffffffffffffffffffffffffffffffffffffffff1673ffffffffffffffffffffffffffffffffffffffff16815260200190815260200160002090506040518060400160405280600381526020017f666f6f000000000000000000000000000000000000000000000000000000000081525081600101908051906020019061057d92919061071f565b5060008060003373ffffffffffffffffffffffffffffffffffffffff1673ffffffffffffffffffffffffffffffffffffffff168152602001908152602001600020604051806040016040529081600082015481526020016001820180546105e390610e25565b80601f016020809104026020016040519081016040528092919081815260200182805461060f90610e25565b801561065c5780601f106106315761010080835404028352916020019161065c565b820191906000526020600020905b81548152906001019060200180831161063f57829003601f168201915b50505050508152505090506101c881600001818152505061067d87876106fb565b6000600367ffffffffffffffff81111561069a576106996107ec565b5b6040519080825280602002602001820160405280156106c85781602001602082028036833780820191505090505b50905060ea816000815181106106e1576106e0610e57565b5b602002602001018181525050809350505050949350505050565b60008282600081811061071157610710610e57565b5b905060200201359050505050565b82805461072b90610e25565b90600052602060002090601f01602090048101928261074d5760008555610794565b82601f1061076657805160ff1916838001178555610794565b82800160010185558215610794579182015b82811115610793578251825591602001919060010190610778565b5b5090506107a191906107a5565b5090565b5b808211156107be5760008160009055506001016107a6565b5090565b6000604051905090565b600080fd5b600080fd5b600080fd5b6000601f19601f8301169050919050565b7f4e487b7100000000000000000000000000000000000000000000000000000000600052604160045260246000fd5b610824826107db565b810181811067ffffffffffffffff82111715610843576108426107ec565b5b80604052505050565b60006108566107c2565b9050610862828261081b565b919050565b600067ffffffffffffffff821115610882576108816107ec565b5b602082029050602081019050919050565b600080fd5b6000819050919050565b6108ab81610898565b81146108b657600080fd5b50565b6000813590506108c8816108a2565b92915050565b60006108e16108dc84610867565b61084c565b9050808382526020820190506020840283018581111561090457610903610893565b5b835b8181101561092d578061091988826108b9565b845260208401935050602081019050610906565b5050509392505050565b600082601f83011261094c5761094b6107d6565b5b813561095c8482602086016108ce565b91505092915050565b600080fd5b600067ffffffffffffffff821115610985576109846107ec565b5b61098e826107db565b9050602081019050919050565b82818337600083830152505050565b60006109bd6109b88461096a565b61084c565b9050828152602081018484840111156109d9576109d8610965565b5b6109e484828561099b565b509392505050565b600082601f830112610a0157610a006107d6565b5b8135610a118482602086016109aa565b91505092915050565b60008060408385031215610a3157610a306107cc565b5b600083013567ffffffffffffffff811115610a4f57610a4e6107d1565b5b610a5b85828601610937565b925050602083013567ffffffffffffffff811115610a7c57610a7b6107d1565b5b610a88858286016109ec565b9150509250929050565b600081519050919050565b600082825260208201905092915050565b6000819050602082019050919050565b610ac781610898565b82525050565b6000610ad98383610abe565b60208301905092915050565b6000602082019050919050565b6000610afd82610a92565b610b078185610a9d565b9350610b1283610aae565b8060005b83811015610b43578151610b2a8882610acd565b9750610b3583610ae5565b925050600181019050610b16565b5085935050505092915050565b60006020820190508181036000830152610b6a8184610af2565b905092915050565b600073ffffffffffffffffffffffffffffffffffffffff82169050919050565b6000610b9d82610b72565b9050919050565b610bad81610b92565b8114610bb857600080fd5b50565b600081359050610bca81610ba4565b92915050565b600060208284031215610be657610be56107cc565b5b6000610bf484828501610bbb565b91505092915050565b610c0681610898565b82525050565b600081519050919050565b600082825260208201905092915050565b60005b83811015610c46578082015181840152602081019050610c2b565b83811115610c55576000848401525b50505050565b6000610c6682610c0c565b610c708185610c17565b9350610c80818560208601610c28565b610c89816107db565b840191505092915050565b6000604082019050610ca96000830185610bfd565b8181036020830152610cbb8184610c5b565b90509392505050565b600080fd5b60008083601f840112610cdf57610cde6107d6565b5b8235905067ffffffffffffffff811115610cfc57610cfb610cc4565b5b602083019150836020820283011115610d1857610d17610893565b5b9250929050565b60008083601f840112610d3557610d346107d6565b5b8235905067ffffffffffffffff811115610d5257610d51610cc4565b5b602083019150836001820283011115610d6e57610d6d610893565b5b9250929050565b60008060008060408587031215610d8f57610d8e6107cc565b5b600085013567ffffffffffffffff811115610dad57610dac6107d1565b5b610db987828801610cc9565b9450945050602085013567ffffffffffffffff811115610ddc57610ddb6107d1565b5b610de887828801610d1f565b925092505092959194509250565b7f4e487b7100000000000000000000000000000000000000000000000000000000600052602260045260246000fd5b60006002820490506001821680610e3d57607f821691505b60208210811415610e5157610e50610df6565b5b50919050565b7f4e487b7100000000000000000000000000000000000000000000000000000000600052603260045260246000fdfea26469706673582212204f9954822669bbf5881e1ce36364ff0c6ec3f2a4e4cf7c6ff6890329335130ba64736f6c634300080b0033",
  "immutableReferences": {},
  "source": "// SPDX-License-Identifier: MIT\npragma solidity ^0.8.7;\n\n// Data locations - Storage, Memory and callData\n// storage - data is a state variable\n// Memory - Data is stored in momory locations\n// callData - except they can only be used in function inputs\ncontract StorageMemoryCalldata {\n\n    struct MyStruct {\n        uint foo;\n        string text;\n    }\n\n    mapping(address => MyStruct) public myStructs;\n\n    // Note: Use storage to update data\n    // Note: Use memory to read the data\n    function example02(uint[] calldata y, string calldata s) external returns (uint[] memory) {\n        myStructs[msg.sender] = MyStruct({ foo: 123, text: \"bar\"});\n        // we will use storage when we wnants toi modify the struct\n        MyStruct storage myStruct = myStructs[msg.sender];\n        myStruct.text = \"foo\";\n\n        // we can alos modify the data in memory, but since it's memory \n        // once function execution is done, data is gone from memory\n        MyStruct memory readOnly = myStructs[msg.sender];\n        readOnly.foo = 456;\n\n        _internal(y);\n\n        // Note: we can only create fixed size array, we can not create dynamic array\n        uint[] memory memArr = new uint[](3);\n        memArr[0] = 234;\n        return memArr;\n\n    }\n\n    function _internal(uint[] calldata y) private {\n        uint x = y[0];\n    }\n\n    // Note: Use storage to update data\n    // Note: Use memory to read the data\n    function example01(uint[] memory y, string memory s) external returns (uint[] memory) {\n        myStructs[msg.sender] = MyStruct({ foo: 123, text: \"bar\"});\n        // we will use storage when we wnants toi modify the struct\n        MyStruct storage myStruct = myStructs[msg.sender];\n        myStruct.text = \"foo\";\n\n        // we can alos modify the data in memory, but since it's memory \n        // once function execution is done, data is gone from memory\n        MyStruct memory readOnly = myStructs[msg.sender];\n        readOnly.foo = 456;\n\n        // Note: we can only create fixed size array, we can not create dynamic array\n        uint[] memory memArr = new uint[](3);\n        memArr[0] = 234;\n        return memArr;\n\n    }\n}",
  "sourcePath": "/Users/bhanuprakashkandregula/Documents/programming/code-javascript-handson/002_SolidityPuzzles/01_SolidityBasics/contracts/26_StorageMemoryCalldata.sol",
  "compiler": {
    "name": "solc",
    "version": "0.8.11+commit.d7f03943.Emscripten.clang"
  },
  "schemaVersion": "3.4.4",
  "updatedAt": "2022-04-03T15:53:01.542Z",
  "devdoc": {
    "kind": "dev",
    "methods": {},
    "version": 1
  },
  "userdoc": {
    "kind": "user",
    "methods": {},
    "version": 1
  }
}