{
  "contractName": "StructsDemo",
  "abi": [
    {
      "inputs": [],
      "name": "car",
      "outputs": [
        {
          "internalType": "string",
          "name": "model",
          "type": "string"
        },
        {
          "internalType": "uint256",
          "name": "year",
          "type": "uint256"
        },
        {
          "internalType": "address",
          "name": "owner",
          "type": "address"
        }
      ],
      "stateMutability": "view",
      "type": "function"
    },
    {
      "inputs": [
        {
          "internalType": "uint256",
          "name": "",
          "type": "uint256"
        }
      ],
      "name": "cars",
      "outputs": [
        {
          "internalType": "string",
          "name": "model",
          "type": "string"
        },
        {
          "internalType": "uint256",
          "name": "year",
          "type": "uint256"
        },
        {
          "internalType": "address",
          "name": "owner",
          "type": "address"
        }
      ],
      "stateMutability": "view",
      "type": "function"
    },
    {
      "inputs": [
        {
          "internalType": "address",
          "name": "",
          "type": "address"
        },
        {
          "internalType": "uint256",
          "name": "",
          "type": "uint256"
        }
      ],
      "name": "carsByOwner",
      "outputs": [
        {
          "internalType": "string",
          "name": "model",
          "type": "string"
        },
        {
          "internalType": "uint256",
          "name": "year",
          "type": "uint256"
        },
        {
          "internalType": "address",
          "name": "owner",
          "type": "address"
        }
      ],
      "stateMutability": "view",
      "type": "function"
    },
    {
      "inputs": [],
      "name": "examples",
      "outputs": [],
      "stateMutability": "nonpayable",
      "type": "function"
    }
  ],
  "bytecode": "0x608060405234801561001057600080fd5b50610d78806100206000396000f3fe608060405234801561001057600080fd5b506004361061004c5760003560e01c8063335d00c214610051578063aa9fb6c81461005b578063ee26fac31461008d578063f7746e36146100ad575b600080fd5b6100596100df565b005b61007560048036038101906100709190610b50565b61070c565b60405161008493929190610c47565b60405180910390f35b6100956107fb565b6040516100a493929190610c47565b60405180910390f35b6100c760048036038101906100c29190610c85565b6108bb565b6040516100d693929190610c47565b60405180910390f35b600060405180606001604052806040518060400160405280600481526020017f526176340000000000000000000000000000000000000000000000000000000081525081526020016107e581526020013373ffffffffffffffffffffffffffffffffffffffff168152509050600060405180606001604052806040518060400160405280600d81526020017f48756e64696120547573636f6e0000000000000000000000000000000000000081525081526020016107e581526020013373ffffffffffffffffffffffffffffffffffffffff1681525090506101bf61099d565b6040518060400160405280600581526020017f5465736c6100000000000000000000000000000000000000000000000000000081525081600001819052506107e481602001818152505033816040019073ffffffffffffffffffffffffffffffffffffffff16908173ffffffffffffffffffffffffffffffffffffffff1681525050600383908060018154018082558091505060019003906000526020600020906003020160009091909190915060008201518160000190805190602001906102899291906109d4565b506020820151816001015560408201518160020160006101000a81548173ffffffffffffffffffffffffffffffffffffffff021916908373ffffffffffffffffffffffffffffffffffffffff1602179055505050600382908060018154018082558091505060019003906000526020600020906003020160009091909190915060008201518160000190805190602001906103259291906109d4565b506020820151816001015560408201518160020160006101000a81548173ffffffffffffffffffffffffffffffffffffffff021916908373ffffffffffffffffffffffffffffffffffffffff1602179055505050600381908060018154018082558091505060019003906000526020600020906003020160009091909190915060008201518160000190805190602001906103c19291906109d4565b506020820151816001015560408201518160020160006101000a81548173ffffffffffffffffffffffffffffffffffffffff021916908373ffffffffffffffffffffffffffffffffffffffff1602179055505050600360405180606001604052806040518060400160405280600781526020017f466572726172690000000000000000000000000000000000000000000000000081525081526020016107e481526020013373ffffffffffffffffffffffffffffffffffffffff16815250908060018154018082558091505060019003906000526020600020906003020160009091909190915060008201518160000190805190602001906104c49291906109d4565b506020820151816001015560408201518160020160006101000a81548173ffffffffffffffffffffffffffffffffffffffff021916908373ffffffffffffffffffffffffffffffffffffffff16021790555050506000600360008154811061052f5761052e610cb2565b5b906000526020600020906003020160405180606001604052908160008201805461055890610d10565b80601f016020809104026020016040519081016040528092919081815260200182805461058490610d10565b80156105d15780601f106105a6576101008083540402835291602001916105d1565b820191906000526020600020905b8154815290600101906020018083116105b457829003601f168201915b50505050508152602001600182015481526020016002820160009054906101000a900473ffffffffffffffffffffffffffffffffffffffff1673ffffffffffffffffffffffffffffffffffffffff1673ffffffffffffffffffffffffffffffffffffffff168152505090508060000151508060200151508060400151506000600360018154811061066557610664610cb2565b5b906000526020600020906003020190506107cf82602001818152505081604001600073ffffffffffffffffffffffffffffffffffffffff1681525060036001815481106106b5576106b4610cb2565b5b9060005260206000209060030201600080820160006106d49190610a5a565b60018201600090556002820160006101000a81549073ffffffffffffffffffffffffffffffffffffffff021916905550505050505050565b6004602052816000526040600020818154811061072857600080fd5b90600052602060002090600302016000915091505080600001805461074c90610d10565b80601f016020809104026020016040519081016040528092919081815260200182805461077890610d10565b80156107c55780601f1061079a576101008083540402835291602001916107c5565b820191906000526020600020905b8154815290600101906020018083116107a857829003601f168201915b5050505050908060010154908060020160009054906101000a900473ffffffffffffffffffffffffffffffffffffffff16905083565b600080600001805461080c90610d10565b80601f016020809104026020016040519081016040528092919081815260200182805461083890610d10565b80156108855780601f1061085a57610100808354040283529160200191610885565b820191906000526020600020905b81548152906001019060200180831161086857829003601f168201915b5050505050908060010154908060020160009054906101000a900473ffffffffffffffffffffffffffffffffffffffff16905083565b600381815481106108cb57600080fd5b90600052602060002090600302016000915090508060000180546108ee90610d10565b80601f016020809104026020016040519081016040528092919081815260200182805461091a90610d10565b80156109675780601f1061093c57610100808354040283529160200191610967565b820191906000526020600020905b81548152906001019060200180831161094a57829003601f168201915b5050505050908060010154908060020160009054906101000a900473ffffffffffffffffffffffffffffffffffffffff16905083565b60405180606001604052806060815260200160008152602001600073ffffffffffffffffffffffffffffffffffffffff1681525090565b8280546109e090610d10565b90600052602060002090601f016020900481019282610a025760008555610a49565b82601f10610a1b57805160ff1916838001178555610a49565b82800160010185558215610a49579182015b82811115610a48578251825591602001919060010190610a2d565b5b509050610a569190610a9a565b5090565b508054610a6690610d10565b6000825580601f10610a785750610a97565b601f016020900490600052602060002090810190610a969190610a9a565b5b50565b5b80821115610ab3576000816000905550600101610a9b565b5090565b600080fd5b600073ffffffffffffffffffffffffffffffffffffffff82169050919050565b6000610ae782610abc565b9050919050565b610af781610adc565b8114610b0257600080fd5b50565b600081359050610b1481610aee565b92915050565b6000819050919050565b610b2d81610b1a565b8114610b3857600080fd5b50565b600081359050610b4a81610b24565b92915050565b60008060408385031215610b6757610b66610ab7565b5b6000610b7585828601610b05565b9250506020610b8685828601610b3b565b9150509250929050565b600081519050919050565b600082825260208201905092915050565b60005b83811015610bca578082015181840152602081019050610baf565b83811115610bd9576000848401525b50505050565b6000601f19601f8301169050919050565b6000610bfb82610b90565b610c058185610b9b565b9350610c15818560208601610bac565b610c1e81610bdf565b840191505092915050565b610c3281610b1a565b82525050565b610c4181610adc565b82525050565b60006060820190508181036000830152610c618186610bf0565b9050610c706020830185610c29565b610c7d6040830184610c38565b949350505050565b600060208284031215610c9b57610c9a610ab7565b5b6000610ca984828501610b3b565b91505092915050565b7f4e487b7100000000000000000000000000000000000000000000000000000000600052603260045260246000fd5b7f4e487b7100000000000000000000000000000000000000000000000000000000600052602260045260246000fd5b60006002820490506001821680610d2857607f821691505b60208210811415610d3c57610d3b610ce1565b5b5091905056fea2646970667358221220c01ccc6e4838b7e395f52266bf38d93006a17bc9b353f9266a9ec140a6f2219664736f6c634300080b0033",
  "immutableReferences": {},
  "source": "// SPDX-License-Identifier: MIT\npragma solidity ^0.8.7;\n\ncontract StructsDemo {\n    struct Car {\n        string model;\n        uint year;\n        address owner;\n    }\n\n    Car public car;\n    Car[] public cars;\n    mapping(address => Car[]) public carsByOwner;\n\n    function examples() external {\n\n        // These are the three different ways to initialize structs\n        Car memory toyota = Car(\"Rav4\", 2021, msg.sender);\n        Car memory hundai = Car({ model: \"Hundia Tuscon\", year: 2021, owner: msg.sender });\n\n        Car memory tesla; // this holds the default values of respective datatypes\n        tesla.model = \"Tesla\";\n        tesla.year = 2020;\n        tesla.owner = msg.sender;\n\n        // Push each car to array of cars\n        cars.push(toyota);\n        cars.push(hundai);\n        cars.push(tesla);\n\n        // below we are Initializing and also pushing to array at same time.\n        cars.push(Car('Ferrari', 2020, msg.sender));\n\n        // This way we can get the car values stored in the cars[] array\n        Car memory _car = cars[0];\n        _car.model;\n        _car.year;\n        _car.owner;\n\n        // Also we can modity the values in the array\n         Car storage _carUpdate = cars[1];\n        _car.year = 1999;\n        delete _car.owner; // this will reset the owner, which is 0\n        delete cars[1]; // deleted the second car\n    }\n}",
  "sourcePath": "/Users/bhanuprakashkandregula/Documents/programming/code-javascript-handson/002_SolidityPuzzles/01_SolidityBasics/contracts/23_StructsDemo.sol",
  "compiler": {
    "name": "solc",
    "version": "0.8.11+commit.d7f03943.Emscripten.clang"
  },
  "schemaVersion": "3.4.4",
  "updatedAt": "2022-04-01T16:30:50.311Z",
  "devdoc": {
    "kind": "dev",
    "methods": {},
    "version": 1
  },
  "userdoc": {
    "kind": "user",
    "methods": {},
    "version": 1
  }
}