{
  "contractName": "TestContract02",
  "abi": [
    {
      "inputs": [
        {
          "internalType": "uint256",
          "name": "_x",
          "type": "uint256"
        },
        {
          "internalType": "uint256",
          "name": "_y",
          "type": "uint256"
        }
      ],
      "stateMutability": "payable",
      "type": "constructor"
    },
    {
      "inputs": [],
      "name": "owner",
      "outputs": [
        {
          "internalType": "address",
          "name": "",
          "type": "address"
        }
      ],
      "stateMutability": "view",
      "type": "function"
    },
    {
      "inputs": [],
      "name": "value",
      "outputs": [
        {
          "internalType": "uint256",
          "name": "",
          "type": "uint256"
        }
      ],
      "stateMutability": "view",
      "type": "function"
    },
    {
      "inputs": [],
      "name": "x",
      "outputs": [
        {
          "internalType": "uint256",
          "name": "",
          "type": "uint256"
        }
      ],
      "stateMutability": "view",
      "type": "function"
    },
    {
      "inputs": [],
      "name": "y",
      "outputs": [
        {
          "internalType": "uint256",
          "name": "",
          "type": "uint256"
        }
      ],
      "stateMutability": "view",
      "type": "function"
    }
  ],
  "bytecode": "0x6080604052336000806101000a81548173ffffffffffffffffffffffffffffffffffffffff021916908373ffffffffffffffffffffffffffffffffffffffff160217905550346001556040516102cd3803806102cd833981810160405281019061006991906100b9565b816002819055508060038190555050506100f9565b600080fd5b6000819050919050565b61009681610083565b81146100a157600080fd5b50565b6000815190506100b38161008d565b92915050565b600080604083850312156100d0576100cf61007e565b5b60006100de858286016100a4565b92505060206100ef858286016100a4565b9150509250929050565b6101c5806101086000396000f3fe608060405234801561001057600080fd5b506004361061004c5760003560e01c80630c55699c146100515780633fa4f2451461006f5780638da5cb5b1461008d578063a56dfe4a146100ab575b600080fd5b6100596100c9565b6040516100669190610118565b60405180910390f35b6100776100cf565b6040516100849190610118565b60405180910390f35b6100956100d5565b6040516100a29190610174565b60405180910390f35b6100b36100f9565b6040516100c09190610118565b60405180910390f35b60025481565b60015481565b60008054906101000a900473ffffffffffffffffffffffffffffffffffffffff1681565b60035481565b6000819050919050565b610112816100ff565b82525050565b600060208201905061012d6000830184610109565b92915050565b600073ffffffffffffffffffffffffffffffffffffffff82169050919050565b600061015e82610133565b9050919050565b61016e81610153565b82525050565b60006020820190506101896000830184610165565b9291505056fea26469706673582212205afa1d674d78b1896eb2823bf9ad1acc2f57ea288af14ba1645bb58876abfd5964736f6c634300080b0033",
  "immutableReferences": {},
  "source": "// SPDX-License-Identifier: MIT\npragma solidity ^0.8.7;\n\n// This is bit complex, but just take the outcomes and keep the code safe.\n// will be helpfull when time comes.\n// Revisit again to understand more: \n// https://www.youtube.com/watch?v=YbRGTF1OGdM&list=PLO5VPQH6OWdVQwpQfw9rZ67O6Pjfo6q-p&index=27\n\ncontract TestContract01 {\n    address public owner = msg.sender;\n\n    function setOwner(address _owner) public {\n        require(msg.sender == owner, \"Not owner\");\n        owner = _owner;\n    }\n}\n\ncontract TestContract02 {\n    address public owner = msg.sender;\n    uint public value = msg.value;\n    uint public x;\n    uint public y;\n\n    constructor(uint _x, uint _y) payable {\n        x = _x;\n        y = _y;\n    }\n}\n\ncontract Proxy{\n    event Deploy(address);\n    fallback() external payable {}\n\n    function deploy(bytes memory _code) external payable returns (address addr) {\n        // address addr;\n        assembly {\n            // create (v, p, n)\n            // v = amount of ETH to send\n            // p = pointer in memory to start of code]\n            // n = size of code\n\n            // to skip the forst 32 bytes in bytecode = 0x20\n            // original compiled code startat after the first 32 bytes of code = mload\n            addr := create(callvalue(), add(_code, 0x20), mload(_code))\n        }\n\n        // return addr;\n\n        require(addr != address(0), \"deploy failed\");\n        emit Deploy(addr);\n    }\n\n    function execute(address _target, bytes memory _data) external payable {\n        (bool success, ) = _target.call{value: msg.value}(_data);\n        require(success, \"failed\");\n    }\n}\n\n// we can also extract the bytecode from external tools like web3.js or ether.js etc\n// But to simplyfi we are writing another helper contract here.\ncontract Helper {\n    function getByteCode1() external pure returns (bytes memory) {\n        bytes memory bytecode = type(TestContract01).creationCode;\n        return bytecode;\n    }\n\n    function getByteCode2(uint _x, uint _y) external pure returns (bytes memory) {\n        bytes memory bytecode = type(TestContract02).creationCode;\n        return abi.encodePacked(bytecode, abi.encode(_x, _y));\n    }\n\n    function getCalldata(address _owner) external pure returns (bytes memory) {\n        return abi.encodeWithSignature(\"setOwner(address)\", _owner);\n    }\n}\n\n",
  "sourcePath": "/Users/bhanuprakashkandregula/Documents/programming/code-javascript-handson/002_SolidityPuzzles/01_SolidityBasics/contracts/25_DeployAnyContract.sol",
  "compiler": {
    "name": "solc",
    "version": "0.8.11+commit.d7f03943.Emscripten.clang"
  },
  "schemaVersion": "3.4.4",
  "updatedAt": "2022-04-03T15:53:01.541Z",
  "devdoc": {
    "kind": "dev",
    "methods": {},
    "version": 1
  },
  "userdoc": {
    "kind": "user",
    "methods": {},
    "version": 1
  }
}