{
  "contractName": "TodoList",
  "abi": [
    {
      "inputs": [
        {
          "internalType": "uint256",
          "name": "",
          "type": "uint256"
        }
      ],
      "name": "todos",
      "outputs": [
        {
          "internalType": "string",
          "name": "text",
          "type": "string"
        },
        {
          "internalType": "bool",
          "name": "completed",
          "type": "bool"
        }
      ],
      "stateMutability": "view",
      "type": "function",
      "constant": true
    },
    {
      "inputs": [
        {
          "internalType": "string",
          "name": "_text",
          "type": "string"
        }
      ],
      "name": "create",
      "outputs": [],
      "stateMutability": "nonpayable",
      "type": "function"
    },
    {
      "inputs": [
        {
          "internalType": "uint256",
          "name": "_index",
          "type": "uint256"
        },
        {
          "internalType": "string",
          "name": "_text",
          "type": "string"
        }
      ],
      "name": "updateTest",
      "outputs": [],
      "stateMutability": "nonpayable",
      "type": "function"
    },
    {
      "inputs": [
        {
          "internalType": "uint256",
          "name": "_index",
          "type": "uint256"
        }
      ],
      "name": "get",
      "outputs": [
        {
          "internalType": "string",
          "name": "",
          "type": "string"
        },
        {
          "internalType": "bool",
          "name": "",
          "type": "bool"
        }
      ],
      "stateMutability": "nonpayable",
      "type": "function"
    },
    {
      "inputs": [
        {
          "internalType": "uint256",
          "name": "_index",
          "type": "uint256"
        }
      ],
      "name": "toggelCompleted",
      "outputs": [],
      "stateMutability": "nonpayable",
      "type": "function"
    },
    {
      "inputs": [],
      "name": "getAllTodos",
      "outputs": [
        {
          "internalType": "uint256[]",
          "name": "todos",
          "type": "uint256[]"
        }
      ],
      "stateMutability": "nonpayable",
      "type": "function"
    }
  ],
  "bytecode": "0x608060405234801561001057600080fd5b5061098c806100206000396000f3fe608060405234801561001057600080fd5b50600436106100625760003560e01c8063884f5f49146100675780639507d39a14610083578063a992f5e5146100b4578063b6a46b3b146100d0578063bc8bc2b4146100ec578063ce2bd5d51461011d575b600080fd5b610081600480360381019061007c9190610628565b61013b565b005b61009d60048036038101906100989190610688565b61017a565b6040516100ab929190610769565b60405180910390f35b6100ce60048036038101906100c99190610688565b61024f565b005b6100ea60048036038101906100e59190610799565b6102c2565b005b61010660048036038101906101019190610688565b61038c565b604051610114929190610769565b60405180910390f35b610125610455565b60405161013291906108a4565b60405180910390f35b60008084815481106101505761014f6108c6565b5b90600052602060002090600202019050828282600001919061017392919061045a565b5050505050565b606060008060008481548110610193576101926108c6565b5b90600052602060002090600202019050806000018160010160009054906101000a900460ff168180546101c590610924565b80601f01602080910402602001604051908101604052809291908181526020018280546101f190610924565b801561023e5780601f106102135761010080835404028352916020019161023e565b820191906000526020600020905b81548152906001019060200180831161022157829003601f168201915b505050505091509250925050915091565b60008181548110610263576102626108c6565b5b906000526020600020906002020160010160009054906101000a900460ff161560008281548110610297576102966108c6565b5b906000526020600020906002020160010160006101000a81548160ff02191690831515021790555050565b6000604051806040016040528084848080601f016020809104026020016040519081016040528093929190818152602001838380828437600081840152601f19601f82011690508083019250505050505050815260200160001515815250908060018154018082558091505060019003906000526020600020906002020160009091909190915060008201518160000190805190602001906103659291906104e0565b5060208201518160010160006101000a81548160ff02191690831515021790555050505050565b6000818154811061039c57600080fd5b90600052602060002090600202016000915090508060000180546103bf90610924565b80601f01602080910402602001604051908101604052809291908181526020018280546103eb90610924565b80156104385780601f1061040d57610100808354040283529160200191610438565b820191906000526020600020905b81548152906001019060200180831161041b57829003601f168201915b5050505050908060010160009054906101000a900460ff16905082565b606090565b82805461046690610924565b90600052602060002090601f01602090048101928261048857600085556104cf565b82601f106104a157803560ff19168380011785556104cf565b828001600101855582156104cf579182015b828111156104ce5782358255916020019190600101906104b3565b5b5090506104dc9190610566565b5090565b8280546104ec90610924565b90600052602060002090601f01602090048101928261050e5760008555610555565b82601f1061052757805160ff1916838001178555610555565b82800160010185558215610555579182015b82811115610554578251825591602001919060010190610539565b5b5090506105629190610566565b5090565b5b8082111561057f576000816000905550600101610567565b5090565b600080fd5b600080fd5b6000819050919050565b6105a08161058d565b81146105ab57600080fd5b50565b6000813590506105bd81610597565b92915050565b600080fd5b600080fd5b600080fd5b60008083601f8401126105e8576105e76105c3565b5b8235905067ffffffffffffffff811115610605576106046105c8565b5b602083019150836001820283011115610621576106206105cd565b5b9250929050565b60008060006040848603121561064157610640610583565b5b600061064f868287016105ae565b935050602084013567ffffffffffffffff8111156106705761066f610588565b5b61067c868287016105d2565b92509250509250925092565b60006020828403121561069e5761069d610583565b5b60006106ac848285016105ae565b91505092915050565b600081519050919050565b600082825260208201905092915050565b60005b838110156106ef5780820151818401526020810190506106d4565b838111156106fe576000848401525b50505050565b6000601f19601f8301169050919050565b6000610720826106b5565b61072a81856106c0565b935061073a8185602086016106d1565b61074381610704565b840191505092915050565b60008115159050919050565b6107638161074e565b82525050565b600060408201905081810360008301526107838185610715565b9050610792602083018461075a565b9392505050565b600080602083850312156107b0576107af610583565b5b600083013567ffffffffffffffff8111156107ce576107cd610588565b5b6107da858286016105d2565b92509250509250929050565b600081519050919050565b600082825260208201905092915050565b6000819050602082019050919050565b61081b8161058d565b82525050565b600061082d8383610812565b60208301905092915050565b6000602082019050919050565b6000610851826107e6565b61085b81856107f1565b935061086683610802565b8060005b8381101561089757815161087e8882610821565b975061088983610839565b92505060018101905061086a565b5085935050505092915050565b600060208201905081810360008301526108be8184610846565b905092915050565b7f4e487b7100000000000000000000000000000000000000000000000000000000600052603260045260246000fd5b7f4e487b7100000000000000000000000000000000000000000000000000000000600052602260045260246000fd5b6000600282049050600182168061093c57607f821691505b602082108114156109505761094f6108f5565b5b5091905056fea26469706673582212201c84cf8c273a1a12f65a3d24ed89c906ea62ee3b278e259dc4aa90e226adb78a64736f6c634300080b0033",
  "immutableReferences": {},
  "source": "// SPDX-License-Identifier: MIT\npragma solidity ^0.8.7;\n\n// Insert, Update and Read from array of structs\ncontract TodoList {\n\n    struct Todo {\n        string text; // Description\n        bool completed; // Status\n    }\n\n    Todo[] public todos;\n\n    // 1. to create a new todo, we will have text as an input\n    function create(string calldata _text) external {\n        // 2. Now we have to insert the new todo in the array of todos\n        todos.push(Todo({\n            text: _text,\n            completed: false\n        }));\n    }\n\n    // 01. To update the text, inside exiting Todo, we have two inputs. array idnex and text\n    function updateTest(uint _index, string calldata _text) external {\n        // 02. if we have just one value to update, this approcach is cheaper for gas\n        // todos[_index].text = _text;\n\n        // 02. if we have multiple value to update, this approcach is cheaper for gas\n        Todo storage todo = todos[_index];\n        todo.text = _text;\n    }\n\n    // 01. To get the specific todo from an array of todos, we need the index of respective todo\n    function get(uint _index) external returns (string memory, bool) {\n        // storage saves more Gas than using memory here\n        Todo storage todo = todos[_index];\n        return (todo.text, todo.completed);\n    }\n\n    // competed - to - no completed\n    // no completed - to - completed\n    function toggelCompleted(uint _index) external {\n        todos[_index].completed = !todos[_index].completed;\n    }\n\n    function getAllTodos() external returns (uint[] memory todos) {\n        return todos;\n    }\n}",
  "sourcePath": "/Users/bhanuprakashkandregula/Documents/programming/code-javascript-handson/002_SolidityPuzzles/01_SolidityBasics/contracts/28_TodoList.sol",
  "compiler": {
    "name": "solc",
    "version": "0.8.11+commit.d7f03943.Emscripten.clang"
  },
  "schemaVersion": "3.4.4",
  "updatedAt": "2022-04-03T16:30:44.742Z",
  "networkType": "ethereum",
  "devdoc": {
    "kind": "dev",
    "methods": {},
    "version": 1
  },
  "userdoc": {
    "kind": "user",
    "methods": {},
    "version": 1
  }
}