{
  "contractName": "ViewAndPureFunctions",
  "abi": [
    {
      "inputs": [],
      "name": "number",
      "outputs": [
        {
          "internalType": "uint256",
          "name": "",
          "type": "uint256"
        }
      ],
      "stateMutability": "view",
      "type": "function"
    },
    {
      "inputs": [],
      "name": "viewFunc",
      "outputs": [
        {
          "internalType": "uint256",
          "name": "",
          "type": "uint256"
        }
      ],
      "stateMutability": "view",
      "type": "function"
    },
    {
      "inputs": [],
      "name": "pureFunc",
      "outputs": [
        {
          "internalType": "uint256",
          "name": "",
          "type": "uint256"
        }
      ],
      "stateMutability": "pure",
      "type": "function"
    },
    {
      "inputs": [
        {
          "internalType": "uint256",
          "name": "x",
          "type": "uint256"
        }
      ],
      "name": "addToNumber",
      "outputs": [
        {
          "internalType": "uint256",
          "name": "",
          "type": "uint256"
        }
      ],
      "stateMutability": "view",
      "type": "function"
    },
    {
      "inputs": [
        {
          "internalType": "uint256",
          "name": "x",
          "type": "uint256"
        },
        {
          "internalType": "uint256",
          "name": "y",
          "type": "uint256"
        }
      ],
      "name": "add",
      "outputs": [
        {
          "internalType": "uint256",
          "name": "",
          "type": "uint256"
        }
      ],
      "stateMutability": "pure",
      "type": "function"
    }
  ],
  "bytecode": "0x608060405234801561001057600080fd5b506102e8806100206000396000f3fe608060405234801561001057600080fd5b50600436106100575760003560e01c806306ccd2301461005c578063231e18a91461008c578063771602f7146100aa5780637f2857b6146100da5780638381f58a146100f8575b600080fd5b61007660048036038101906100719190610196565b610116565b60405161008391906101d2565b60405180910390f35b61009461012d565b6040516100a191906101d2565b60405180910390f35b6100c460048036038101906100bf91906101ed565b610136565b6040516100d191906101d2565b60405180910390f35b6100e261014c565b6040516100ef91906101d2565b60405180910390f35b610100610155565b60405161010d91906101d2565b60405180910390f35b600081600054610126919061025c565b9050919050565b60006001905090565b60008183610144919061025c565b905092915050565b60008054905090565b60005481565b600080fd5b6000819050919050565b61017381610160565b811461017e57600080fd5b50565b6000813590506101908161016a565b92915050565b6000602082840312156101ac576101ab61015b565b5b60006101ba84828501610181565b91505092915050565b6101cc81610160565b82525050565b60006020820190506101e760008301846101c3565b92915050565b600080604083850312156102045761020361015b565b5b600061021285828601610181565b925050602061022385828601610181565b9150509250929050565b7f4e487b7100000000000000000000000000000000000000000000000000000000600052601160045260246000fd5b600061026782610160565b915061027283610160565b9250827fffffffffffffffffffffffffffffffffffffffffffffffffffffffffffffffff038211156102a7576102a661022d565b5b82820190509291505056fea2646970667358221220f338b365f08e664382b3eb79c6d92e97d792f27aa436081a2effe8564bfad48f64736f6c634300080b0033",
  "immutableReferences": {},
  "source": "// SPDX-License-Identifier: MIT\npragma solidity ^0.8.7;\n\ncontract ViewAndPureFunctions {\n\n    // View functions can read data from thr Blockchain\n    // Pure functions don not read anything form the Blockchain\n\n    // state variables\n    uint public number;\n\n    // since this function can read state variable, view keywprd is applicable\n    // state variable are the values which stores on the blockchain\n    function viewFunc() external view returns (uint){\n        return number;\n    }\n\n    function pureFunc() external pure returns (uint) {\n        return 1;\n    }\n\n    // keyword check - view\n    function addToNumber(uint x) external view returns (uint){\n        return number + x;\n    }\n\n    // keyword check - pure \n    function add(uint x, uint y) external pure returns (uint){\n        return x + y;\n    }\n}",
  "sourcePath": "/Users/bhanuprakashkandregula/Documents/programming/code-javascript-handson/002_SolidityPuzzles/01_SolidityBasics/contracts/07_ViewAndPureFunctions.sol",
  "compiler": {
    "name": "solc",
    "version": "0.8.11+commit.d7f03943.Emscripten.clang"
  },
  "schemaVersion": "3.4.4",
  "updatedAt": "2022-03-31T15:35:56.334Z",
  "devdoc": {
    "kind": "dev",
    "methods": {},
    "version": 1
  },
  "userdoc": {
    "kind": "user",
    "methods": {},
    "version": 1
  }
}