{
  "contractName": "Summation",
  "abi": [
    {
      "inputs": [
        {
          "internalType": "int256",
          "name": "n",
          "type": "int256"
        }
      ],
      "name": "SummationNum",
      "outputs": [
        {
          "internalType": "int256",
          "name": "",
          "type": "int256"
        }
      ],
      "stateMutability": "pure",
      "type": "function",
      "constant": true
    }
  ],
  "bytecode": "0x608060405234801561001057600080fd5b50610270806100206000396000f3fe608060405234801561001057600080fd5b506004361061002b5760003560e01c80639512235f14610030575b600080fd5b61004a600480360381019061004591906100d7565b610060565b6040516100579190610113565b60405180910390f35b6000806000905060005b83811361009257808261007d919061015d565b9150808061008a906101f1565b91505061006a565b5080915050919050565b600080fd5b6000819050919050565b6100b4816100a1565b81146100bf57600080fd5b50565b6000813590506100d1816100ab565b92915050565b6000602082840312156100ed576100ec61009c565b5b60006100fb848285016100c2565b91505092915050565b61010d816100a1565b82525050565b60006020820190506101286000830184610104565b92915050565b7f4e487b7100000000000000000000000000000000000000000000000000000000600052601160045260246000fd5b6000610168826100a1565b9150610173836100a1565b9250817f7fffffffffffffffffffffffffffffffffffffffffffffffffffffffffffffff038313600083121516156101ae576101ad61012e565b5b817f80000000000000000000000000000000000000000000000000000000000000000383126000831216156101e6576101e561012e565b5b828201905092915050565b60006101fc826100a1565b91507f7fffffffffffffffffffffffffffffffffffffffffffffffffffffffffffffff82141561022f5761022e61012e565b5b60018201905091905056fea2646970667358221220c3c8e646eda41ec4cbcfd6634c404c0b46a2877490cf926004d21b00bb0622a764736f6c634300080b0033",
  "immutableReferences": {},
  "source": "// SPDX-License-Identifier: MIT\npragma solidity >=0.4.22 <0.9.0;\n\ncontract Summation {\n    \n    function SummationNum(int n) public pure returns (int) {\n        int sum = 0;\n        for(int i=0; i<=n; i++){\n            sum = sum + i;\n        }\n    return sum;\n    }\n}",
  "sourcePath": "/Users/bhanuprakashkandregula/Documents/programming/code-javascript-handson/002_SolidityPuzzles/02_solidityHunts/contracts/01_Summation.sol",
  "compiler": {
    "name": "solc",
    "version": "0.8.11+commit.d7f03943.Emscripten.clang"
  },
  "schemaVersion": "3.4.4",
  "updatedAt": "2022-04-04T14:45:48.456Z",
  "networkType": "ethereum",
  "devdoc": {
    "kind": "dev",
    "methods": {},
    "version": 1
  },
  "userdoc": {
    "kind": "user",
    "methods": {},
    "version": 1
  }
}